:020000040800F2
:1000000000000524D1210008411F0008431F0008FB
:10001000451F0008471F0008491F00080000000096
:100020000000000000000000000000004B1F00085E
:100030004D1F0008000000004F1F0008511F00085E
:100040002122000821220008212200082122000884
:100050002122000821220008212200082122000874
:100060002122000821220008212200082122000864
:100070002122000821220008212200082122000854
:10008000212200082122000821220008591F00080F
:10009000691F0008791F0008891F00082122000835
:1000A0002122000821220008212200082122000824
:1000B0002122000821220008212200082122000814
:1000C0002122000821220008212200082122000804
:1000D00021220008212200082122000821220008F4
:1000E000212200082122000800000000212200082F
:1000F00021220008212200082122000821220008D4
:1001000021220008212200082122000821220008C3
:1001100021220008212200082122000821220008B3
:1001200021220008212200082122000821220008A3
:1001300021220008F1A9010821220008212200083B
:1001400000000000000000000000000000000000AF
:100150002122000821220008212200082122000873
:100160002122000821220008212200082122000863
:10017000212200082122000821220008000000009E
:100180002122000821220008212200082122000843
:100190002122000821220008212200082122000833
:1001A000212200082122000821220008000000006E
:1001B0002122000821220008212200082122000813
:1001C0002122000821220008000000000000000099
:1001D00000000000000000002122000800000000D4
:1001E000000000000000000000000000000000000F
:1001F0000000000000000000212200082122000869
:10020000212200082122000800000000212200080D
:1002100021220008212200082122000821220008B2
:100220002122000800000000212200080000000038
:1002300021220008212200080000000021220008DD
:100240002122000821220008212200082122000882
:100250002122000821220008212200082122000872
:100260002122000821220008212200082122000862
:10027000212200082122000821220008000000009D
:100280002122000821220008212200082122000842
:1002900000000000212200082122000800000000C8
:1002A000000000002122000821220008212200086D
:1002B0002122000821220008212200082122000812
:0C02C00021220008212200082122000851
:1003000081F0004102E000BF83F0004330B54FEAC6
:1003100041044FEA430594EA050F08BF90EA020F33
:100320001FBF54EA000C55EA020C7FEA645C7FEAC6
:10033000655C00F0E2804FEA5454D4EB5555B8BFE9
:100340006D420CDD2C4480EA020281EA030382EA5A
:10035000000083EA010180EA020281EA0303362DEC
:1003600088BF30BD11F0004F4FEA01314FF4801CBF
:100370004CEA113102D0404261EB410113F0004FD1
:100380004FEA03334CEA133302D0524263EB430388
:1003900094EA050F00F0A780A4F10104D5F1200E26
:1003A0000DDB02FA0EFC22FA05F2801841F1000181
:1003B00003FA0EF2801843FA05F359410EE0A5F155
:1003C00020050EF1200E012A03FA0EFC28BF4CF086
:1003D000020C43FA05F3C01851EBE37101F000453C
:1003E00007D54FF0000EDCF1000C7EEB00006EEB49
:1003F0000101B1F5801F1BD3B1F5001F0CD34908D3
:100400005FEA30004FEA3C0C04F101044FEA445229
:1004100012F5800F80F09A80BCF1004F08BF5FEAB0
:10042000500C50F1000041EB045141EA050130BD90
:100430005FEA4C0C404141EB0101013C28BFB1F5A2
:10044000801FE9D291F0000F04BF01460020B1FAED
:1004500081F308BF2033A3F10B03B3F120020CDAC0
:100460000C3208DD02F1140CC2F10C0201FA0CF09E
:1004700021FA02F10CE002F11402D8BFC2F1200C03
:1004800001FA02F120FA0CFCDCBF41EA0C019040B9
:10049000E41AA2BF01EB0451294330BD6FEA040402
:1004A0001F3C1CDA0C340EDC04F11404C4F12002ED
:1004B00020FA04F001FA02F340EA030021FA04F3FF
:1004C00045EA030130BDC4F10C04C4F1200220FA56
:1004D00002F001FA04F340EA0300294630BD21FA94
:1004E00004F0294630BD94F0000F83F4801306BF5A
:1004F00081F480110134013D4EE77FEA645C18BF4E
:100500007FEA655C29D094EA050F08BF90EA020FE4
:1005100005D054EA000C04BF1946104630BD91EADC
:10052000030F1EBF0021002030BD5FEA545C05D1DF
:100530004000494128BF41F0004130BD14F580041E
:100540003CBF01F5801130BD01F0004545F0FE4192
:1005500041F470014FF0000030BD7FEA645C1ABFC7
:10056000194610467FEA655C1CBF0B46024650EAFE
:10057000013406BF52EA033591EA030F41F400212A
:1005800030BD00BF90F0000F04BF0021704730B5B0
:100590004FF4806404F132044FF000054FF0000185
:1005A00050E700BF90F0000F04BF0021704730B546
:1005B0004FF4806404F1320410F0004548BF40421B
:1005C0004FF000013EE700BF42004FEAE2014FEA70
:1005D00031014FEA02701FBF12F07F4393F07F4F4B
:1005E00081F06051704732F07F4208BF704793F04E
:1005F0007F4F04BF41F40021704730B54FF4607461
:1006000001F0004521F000411CE700BF50EA010263
:1006100008BF704730B54FF000050AE050EA01020C
:1006200008BF704730B511F0004502D5404261EB7C
:1006300041014FF4806404F132045FEA915C3FF4BD
:10064000D8AE4FF003025FEADC0C18BF03325FEA5A
:10065000DC0C18BF033202EBDC02C2F1200300FA0B
:1006600003FC20FA02F001FA03FE40EA0E0021FA30
:1006700002F11444BDE600BF70B54FF0FF0C4CF41E
:10068000E06C1CEA11541DBF1CEA135594EA0C0FD0
:1006900095EA0C0F00F0DEF82C4481EA030621EA0B
:1006A0004C5123EA4C5350EA013518BF52EA033546
:1006B00041F4801143F4801338D0A0FB02CE4FF0F8
:1006C0000005E1FB02E506F00042E0FB03E54FF028
:1006D0000006E1FB03569CF0000F18BF4EF0010E20
:1006E000A4F1FF04B6F5007F64F5407404D25FEA1C
:1006F0004E0E6D4146EB060642EAC62141EA5551CF
:100700004FEAC52040EA5E504FEACE2EB4F1FD0C10
:1007100088BFBCF5E06F1ED8BEF1004F08BF5FEA8E
:10072000500E50F1000041EB045170BD06F0004640
:1007300046EA010140EA020081EA0301B4EB5C04ED
:10074000C2BFD4EB0C0541EA045170BD41F48011E5
:100750004FF0000E013C00F3AB8014F1360FDEBF0A
:10076000002001F0004170BDC4F10004203C35DAE6
:100770000C341BDC04F11404C4F1200500FA05F369
:1007800020FA04F001FA05F240EA020001F000420A
:1007900021F0004110EBD37021FA04F642EB060180
:1007A0005EEA430E08BF20EAD37070BDC4F10C04AA
:1007B000C4F1200500FA04F320FA05F001FA04F26E
:1007C00040EA020001F0004110EBD37041F100015A
:1007D0005EEA430E08BF20EAD37070BDC4F1200565
:1007E00000FA05F24EEA020E20FA04F301FA05F2CD
:1007F00043EA020321FA04F001F0004121FA04F275
:1008000020EA020000EBD3705EEA430E08BF20EA44
:10081000D37070BD94F0000F0FD101F0004640007E
:1008200041EB010111F4801F08BF013CF7D041EA00
:10083000060195F0000F18BF704703F00046520004
:1008400043EB030313F4801F08BF013DF7D043EAD5
:100850000603704794EA0C0F0CEA135518BF95EA8B
:100860000C0F0CD050EA410618BF52EA4306D1D112
:1008700081EA030101F000414FF0000070BD50EA31
:10088000410606BF1046194652EA430619D094EABB
:100890000C0F02D150EA013613D195EA0C0F05D1A5
:1008A00052EA03361CBF104619460AD181EA0301F9
:1008B00001F0004141F0FE4141F470014FF00000B1
:1008C00070BD41F0FE4141F4780170BD70B54FF04C
:1008D000FF0C4CF4E06C1CEA11541DBF1CEA1355CC
:1008E00094EA0C0F95EA0C0F00F0A7F8A4EB0504AE
:1008F00081EA030E52EA03354FEA013100F08880A5
:100900004FEA03334FF0805545EA131343EA12636D
:100910004FEA022245EA111545EA10654FEA002622
:100920000EF000419D4208BF964244F1FD0404F5DB
:10093000407402D25B084FEA3202B61A65EB030537
:100940005B084FEA32024FF480104FF4002CB6EBF4
:10095000020E75EB030E22BFB61A754640EA0C0074
:100960005B084FEA3202B6EB020E75EB030E22BFB4
:10097000B61A754640EA5C005B084FEA3202B6EBF5
:10098000020E75EB030E22BFB61A754640EA9C00B4
:100990005B084FEA3202B6EB020E75EB030E22BF84
:1009A000B61A754640EADC0055EA060E18D04FEA42
:1009B000051545EA16754FEA06164FEAC30343EAE2
:1009C00052734FEAC2025FEA1C1CC0D111F4801FAF
:1009D0000BD141EA00014FF000004FF0004CB6E7A8
:1009E00011F4801F04BF01430020B4F1FD0C88BF47
:1009F000BCF5E06F3FF6AFAEB5EB030C04BFB6EB52
:100A0000020C5FEA500C50F1000041EB045170BD44
:100A10000EF0004E4EEA113114EB5C04C2BFD4EB71
:100A20000C0541EA045170BD41F480114FF0000EF5
:100A3000013C90E645EA060E8DE60CEA135594EA71
:100A40000C0F08BF95EA0C0F3FF43BAF94EA0C0F74
:100A50000AD150EA01347FF434AF95EA0C0F7FF4E9
:100A600025AF104619462CE795EA0C0F06D152EA3D
:100A700003353FF4FDAE1046194622E750EA410621
:100A800018BF52EA43067FF4C5AE50EA41047FF432
:100A90000DAF52EA43057FF4EBAE12E74FF0FF3C97
:100AA00006E000BF4FF0010C02E000BF4FF0010C68
:100AB0004DF804CD4FEA410C7FEA6C5C4FEA430CE1
:100AC00018BF7FEA6C5C1BD001B050EA410C0CBF30
:100AD00052EA430C91EA030F02BF90EA020F002092
:100AE000704710F1000F91EA030F58BF994208BFF9
:100AF00090422CBFD8176FEAE37040F001007047B6
:100B00004FEA410C7FEA6C5C02D150EA013C07D10C
:100B10004FEA430C7FEA6C5CD6D152EA033CD3D057
:100B20005DF8040B704700BF8446104662468C4651
:100B30001946634600E000BF01B5FFF7B7FF002884
:100B400048BF10F1000F01BD4DF808EDFFF7F4FFAD
:100B50000CBF012000205DF808FB00BF4DF808ED38
:100B6000FFF7EAFF34BF012000205DF808FB00BF5B
:100B70004DF808EDFFF7E0FF94BF012000205DF87D
:100B800008FB00BF4DF808EDFFF7CEFF94BF012032
:100B900000205DF808FB00BF4DF808EDFFF7C4FF2B
:100BA00034BF012000205DF808FB00BF4FEA41027E
:100BB00012F5001215D211D56FF47873B3EB6252AF
:100BC00012D94FEAC12343F0004343EA505311F0D6
:100BD000004F23FA02F018BF404270474FF0000068
:100BE000704750EA013005D111F0004008BF6FF0A6
:100BF000004070474FF00000704700BF80F0004099
:100C000002E000BF81F0004142001FBF5FEA4103E4
:100C100092EA030F7FEA226C7FEA236C6AD04FEAE4
:100C20001262D2EB1363C1BFD21841404840414029
:100C3000B8BF5B42192B88BF704710F0004F40F4DB
:100C4000000020F07F4018BF404211F0004F41F4F7
:100C5000000121F07F4118BF494292EA030F3FD0C3
:100C6000A2F1010241FA03FC10EB0C00C3F12003D6
:100C700001FA03F100F0004302D5494260EB400065
:100C8000B0F5000F13D3B0F1807F06D340084FEAD0
:100C9000310102F10102FE2A51D2B1F1004F40EBC5
:100CA000C25008BF20F0010040EA0300704749002D
:100CB00040EB0000013A28BFB0F5000FEDD2B0FACA
:100CC00080FCACF1080CB2EB0C0200FA0CF0AABFED
:100CD00000EBC25052421843BCBFD040184370478B
:100CE00092F0000F81F4000106BF80F40000013291
:100CF000013BB5E74FEA41037FEA226C18BF7FEA68
:100D0000236C21D092EA030F04D092F0000F08BFA9
:100D10000846704790EA010F1CBF0020704712F090
:100D20007F4F04D1400028BF40F00040704712F1CF
:100D300000723CBF00F50000704700F0004343F034
:100D4000FE4040F4000070477FEA226216BF08466A
:100D50007FEA23630146420206BF5FEA412390EA2D
:100D6000010F40F4800070474FF0000304E000BF23
:100D700010F0004348BF40425FEA000C08BF7047D4
:100D800043F0964301464FF000001CE050EA010298
:100D900008BF70474FF000030AE000BF50EA0102AD
:100DA00008BF704711F0004302D5404261EB41019A
:100DB0005FEA010C02BF84460146002043F0B643BF
:100DC00008BFA3F18053A3F50003BCFA8CF2083AE4
:100DD000A3EBC25310DB01FA02FC634400FA02FCED
:100DE000C2F12002BCF1004F20FA02F243EB0200F4
:100DF00008BF20F00100704702F1200201FA02FC56
:100E0000C2F1200250EA4C0021FA02F243EB020048
:100E100008BF20EADC7070474FF0FF0C1CEAD0528C
:100E20001EBF1CEAD15392EA0C0F93EA0C0F6FD04D
:100E30001A4480EA010C400218BF5FEA41211ED02B
:100E40004FF0006343EA501043EA5111A0FB013117
:100E50000CF00040B1F5000F3EBF490041EAD371EC
:100E60005B0040EA010062F17F02FD2A1DD8B3F168
:100E7000004F40EBC25008BF20F00100704790F0D7
:100E8000000F0CF0004C08BF49024CEA502040EA29
:100E900051207F3AC2BFD2F1FF0340EAC2507047EF
:100EA00040F400004FF00003013A5DDC12F1190F2D
:100EB000DCBF00F000407047C2F10002410021FA9F
:100EC00002F1C2F1200200FA02FC5FEA310040F1B7
:100ED000000053EA4C0308BF20EADC70704792F030
:100EE000000F00F0004C02BF400010F4000F013A68
:100EF000F9D040EA0C0093F0000F01F0004C02BF63
:100F0000490011F4000F013BF9D041EA0C018FE7D1
:100F10000CEAD15392EA0C0F18BF93EA0C0F0AD0D7
:100F200030F0004C18BF31F0004CD8D180EA0100FD
:100F300000F00040704790F0000F17BF90F0004F96
:100F4000084691F0000F91F0004F14D092EA0C0F78
:100F500001D142020FD193EA0C0F03D14B0218BF0B
:100F6000084608D180EA010000F0004040F0FE4051
:100F700040F40000704740F0FE4040F440007047ED
:100F80004FF0FF0C1CEAD0521EBF1CEAD15392EA6C
:100F90000C0F93EA0C0F69D0A2EB030280EA010C5C
:100FA00049024FEA402037D04FF0805343EA1111F5
:100FB00043EA10130CF000408B4238BF5B0042F153
:100FC0007D024FF4000C8B4224BF5B1A40EA0C00F8
:100FD000B3EB510F24BFA3EB510340EA5C00B3EB2A
:100FE000910F24BFA3EB910340EA9C00B3EBD10F18
:100FF00024BFA3EBD10340EADC001B0118BF5FEA6A
:101000001C1CE0D1FD2A3FF650AF8B4240EBC25092
:1010100008BF20F0010070470CF0004C4CEA502053
:101020007F32C2BFD2F1FF0340EAC250704740F4A2
:1010300000004FF00003013A37E792F0000F00F094
:10104000004C02BF400010F4000F013AF9D040EA12
:101050000C0093F0000F01F0004C02BF490011F4A6
:10106000000F013BF9D041EA0C0195E70CEAD1539E
:1010700092EA0C0F08D142027FF47DAF93EA0C0F85
:101080007FF470AF084676E793EA0C0F04D14B0269
:101090003FF44CAF08466EE730F0004C18BF31F01B
:1010A000004CCAD130F000427FF45CAF31F0004315
:1010B0007FF43CAF5FE700BF4FEA4002B2F1FE4F62
:1010C0000FD34FF09E03B3EB12620DD94FEA00230A
:1010D00043F0004310F0004F23FA02F018BF4042E3
:1010E00070474FF00000704712F1610F01D14202CA
:1010F00005D110F0004008BF6FF0004070474FF07E
:101100000000704742000ED2B2F1FE4F0BD34FF0F9
:101110009E03B3EB126209D44FEA002343F000436D
:1011200023FA02F070474FF00000704712F1610F90
:1011300001D1420202D14FF0FF3070474FF0000062
:10114000704700BF53B94AB9002908BF00281CBF27
:101150004FF0FF314FF0FF3000F00CB8ADF1080C4C
:101160006DE904CE1AF098FEDDF804E0DDE9022313
:1011700004B07047704700BF00000000000000008E
:1011800002780B78012A28BF9A4240F0D8806DE996
:10119000044540EA0104CDE902676FF0000C4FEA14
:1011A00044721AB380EA010414F0070F6BD100F007
:1011B000070420F0070004F0030521F007014FEABF
:1011C000C505F0E8042314F0040FF1E804670CFAF5
:1011D00005F462EA040266EA04060BD063EA04033B
:1011E000624667EA0407664604E000BFF0E80423AD
:1011F000F1E8046782FA4CF582EA0604A4FA8CF45A
:101200006CBB83FA4CF583EA0705A5FA8CF595B912
:1012100050E9022351E9026782FA4CF582EA06049A
:10122000A4FA8CF483FA4CF583EA0705A5FA8CF549
:101230002543DBD09CB92DBAB5FA85F424F0070418
:1012400027FA04F1DDE9026723FA04F303F0FF0053
:1012500001F0FF01FDE80445A0EB0100704724BA4E
:10126000B4FA84F424F0070426FA04F1DDE90267F5
:1012700022FA04F202F0FF0001F0FF01FDE804454C
:10128000A0EB0100704714F0030F3CD110F00304F1
:1012900028D150F8082B51F8083B82FA4CF582EA25
:1012A0000305A5FA8CF55DB950F8042C51F8043CFF
:1012B00082FA4CF582EA0305A5FA8CF5002DE8D0F8
:1012C0002DBAB5FA85F424F0070423FA04F122FAC2
:1012D00004F202F0FF0001F0FF01FDE80445A0EB7D
:1012E000010070474FEAC40420F0030050F8082BB7
:1012F00021F0030151F8083B0CFA04F462EA0402FD
:1013000063EA0403C9E710F003041DD0A1EB040154
:1013100020F00300E40750F8042B06D012D28B789B
:101320005FFAA2F4E41A06D12BB1CB785FFAB2F4DB
:10133000E41A00D133B920465DF8104B7047A2EB98
:101340000300704701F1040150F8042BCC0721F091
:10135000030151F8043B48D824D222F07F4482FA9A
:101360004CF594EA1325A5FA8CF50AD165B951F824
:10137000043B84EA0204B4EB036F0ED150F8042B53
:10138000EBE74FEA132355E035F07F454DD1087860
:10139000FDE80445C0F1000070474FEA126203F017
:1013A000FF0347E002EA1C4482FA4CF594EA134535
:1013B000A5FA8CF50AD165B951F8043B84EA020418
:1013C000B4EB034F0CD150F8042BEBE74FEA134377
:1013D00030E015EA1C4528D10B884FEA124229E07B
:1013E0004FEA124203EA1C4324E002F0FF0482FAAF
:1013F0004CF594EA1365A5FA8CF50AD165B951F854
:10140000043B84EA0204B4EB032F09D150F8042B07
:10141000EBE74FEA13630DE015F0FF0F05D10B6802
:101420004FEA122223F07F4304E04FF00000FDE872
:101430000445704712BA1BBA82FA4CF482EA0304DC
:10144000A4FA8CF5B5FA85F402FA04F203FA04F36F
:101450004FEA1260FDE80445A0EB1360704700BF3F
:1014600001F0FF01102A2BDB10F0070F08D010F855
:10147000013B013A8B422DD010F0070F42B3F6D159
:10148000F0B441EA012141EA014122F007047FF072
:1014900000070023F0E80256083C85EA010586EAC9
:1014A000010685FA47F5A3FA87F586FA47F6A5FA05
:1014B00087F68EB9EED1F0BC01F0FF0102F0070211
:1014C00032B110F8013B013A83EA010313B1F8D1BC
:1014D0000020704701387047002D06BF354603389D
:1014E000073815F0010F07D1013015F4807F02BFD6
:1014F000013015F4C03F0130F0BC0138704700BF27
:10150000844641EA000313F003036DD1403A41D30E
:1015100051F8043B40F8043B51F8043B40F8043BCD
:1015200051F8043B40F8043B51F8043B40F8043BBD
:1015300051F8043B40F8043B51F8043B40F8043BAD
:1015400051F8043B40F8043B51F8043B40F8043B9D
:1015500051F8043B40F8043B51F8043B40F8043B8D
:1015600051F8043B40F8043B51F8043B40F8043B7D
:1015700051F8043B40F8043B51F8043B40F8043B6D
:1015800051F8043B40F8043B51F8043B40F8043B5D
:10159000403ABDD2303211D351F8043B40F8043BFD
:1015A00051F8043B40F8043B51F8043B40F8043B3D
:1015B00051F8043B40F8043B103AEDD20C3205D30D
:1015C00051F8043B40F8043B043AF9D2043208D005
:1015D000D2071CBF11F8013B00F8013B01D30B8877
:1015E00003806046704700BF082A13D38B078DD055
:1015F00010F003038AD0C3F10403D21ADB071CBF27
:1016000011F8013B00F8013B80D331F8023B20F890
:10161000023B7BE7043AD9D3013A11F8013B00F8C9
:10162000013BF9D20B7803704B7843708B78837051
:10163000604670470000000000000000000000004D
:1016400030B490F800F020F007016FF0000C10F0BB
:10165000070491F820F040F048804FF000046FF04C
:101660000700D1E9002391F840F000F1080082FA68
:101670004CF2A4FA8CF283FA4CF3A2FA8CF34BBB33
:10168000D1E9022382FA4CF200F10800A4FA8CF2AC
:1016900083FA4CF3A2FA8CF3E3B9D1E9042382FA7A
:1016A0004CF200F10800A4FA8CF283FA4CF3A2FA8F
:1016B0008CF37BB9D1E9062301F1200182FA4CF2C7
:1016C00000F10800A4FA8CF283FA4CF3A2FA8CF32E
:1016D000002BC6D0002A04BF04301A4612BAB2FA50
:1016E00082F200EBD20030BC7047D1E9002304F055
:1016F0000305C4F100004FEAC50514F0040F91F88A
:1017000040F00CFA05F562EA05021CBF63EA050326
:1017100062464FF00004AAE74FEA410C7FEA6C5C96
:1017200002D150EA013C0AD14FEA430C7FEA6C5CDB
:1017300002D152EA033C02D14FF0000070474FF053
:10174000010070470348044B834202D0034B03B1AE
:1017500018477047481D0024481D00240000000061
:101760000548064B1B1AD90F01EBA301491002D003
:10177000034B03B118477047481D0024481D00243F
:101780000000000010B5064C237843B9FFF7DAFFDC
:10179000044B13B10448AFF300800123237010BD44
:1017A000481D002400000000485C020808B5054BF5
:1017B0001BB105490548AFF30080BDE80840FFF7BD
:1017C000CFBF00BF000000004C1D0024485C020891
:1017D00010B51448144B0360144B00221A7080217A
:1017E0005970E1219970DA701A715A7143600123BE
:1017F00003720F4BC3600F4B036140F2F45343611C
:1018000001F08AFE58B90C4C3822002120461BF00A
:101810000DFB212323604FF44033636110BD00F0C2
:10182000CDFAF0E76C1D002400800240641D002406
:1018300060000030000000301C1E0024F0B58DB0A8
:1018400000230793089309930A930B930268474B6D
:101850009A4201D00DB0F0BD454BD3F8D82042F4E8
:101860000042C3F8D820D3F8D82002F400420092F6
:10187000009AD3F8D82042F48032C3F8D820D3F8A5
:10188000D82002F480320192019AD3F8D82042F491
:101890000032C3F8D820D3F8D82002F400320292E4
:1018A000029AD3F8E02042F00402C3F8E020D3F813
:1018B000E02002F004020392039AD3F8E02042F001
:1018C0000102C3F8E020D3F8E02002F00102049204
:1018D000049AD3F8E02042F00202C3F8E020D3F8E3
:1018E000E02002F002020592059AD3F8E02042F0CF
:1018F0004002C3F8E020D3F8E03003F04003069341
:10190000069B32230793022708970B260B9607ADF9
:101910002946184802F014FD8623079308970024EF
:1019200009940A940B962946134802F009FD4FF4D6
:1019300000530793089709940A940B9629460F4879
:1019400002F0FEFC4FF420530793089709940A9481
:101950000B9629460A4802F0F3FC224621463D2018
:1019600001F07CFB3D2001F089FB73E70080024021
:1019700000440258000802580000025800040258AF
:101980000018025810B51648164B036000238360F8
:10199000C360012202744374837402214161826135
:1019A0001524C461016242628262C26202634363BF
:1019B0001C228263C3634022026404224264836463
:1019C000C264036542658365C36520210166436681
:1019D000826601F08DFF00B910BD00F0EFF9FBE762
:1019E000F81E002400A0004010B51648164B0360F6
:1019F00000238360C3600122027443748374022154
:101A0000416182611524C461016242628262C262E4
:101A1000026343631C228263C36340220264042284
:101A200042648364C264036542658365C3652021A3
:101A300001664366826601F05BFF00B910BD00F0ED
:101A4000BDF9FBE7581E002400A4004010B5B8B053
:101A50000446002133913491359136913791B82263
:101A600004A81BF0E3F92368524A934204D0524A77
:101A700093424FD038B010BD4FF400420023CDE95F
:101A800004234FF080531F9304A803F033FC80BB62
:101A90004A4A136801331360012B2DD0484BD3F809
:101AA000E02042F00802C3F8E020D3F8E03003F071
:101AB00008030193019B03233393022334930024EF
:101AC000359436940923379333A93E4802F038FC05
:101AD00022462146132001F0C1FA132001F0CEFA6C
:101AE00022462146152001F0B9FA152001F0C6FA68
:101AF000C0E700F063F9CBE7314BD3F8EC2042F4B8
:101B00008072C3F8EC20D3F8EC3003F480730093B8
:101B1000009BC3E74FF400420023CDE904234FF0BC
:101B200080531F9304A803F0E5FB88BB234A136886
:101B300001331360012B2ED0214BD3F8E02042F06B
:101B40000202C3F8E020D3F8E03003F0020303936D
:101B5000039B4FF482533393022334930024359430
:101B600036940923379333A9174802F0E9FB22463C
:101B70002146142001F072FA142001F07FFA224667
:101B80002146162001F06AFA162001F077FA71E773
:101B900000F014F9CAE70A4BD3F8EC2042F4807243
:101BA000C3F8EC20D3F8EC3003F480730293029B6B
:101BB000C2E700BF00A0004000A40040541E002463
:101BC00000440258000C0258000402582DE9F0436A
:101BD0008DB007AD00240794089409940A940B94DF
:101BE000564BD3F8E02042F00402C3F8E020D3F8CB
:101BF000E02002F004020092009AD3F8E02042F0C4
:101C00008002C3F8E020D3F8E02002F080020192C5
:101C1000019AD3F8E02042F00102C3F8E020D3F8A3
:101C2000E02002F001020292029AD3F8E02042F092
:101C30000202C3F8E020D3F8E02002F0020203928F
:101C4000039AD3F8E02042F00802C3F8E020D3F86A
:101C5000E02002F008020492049AD3F8E02042F057
:101C60004002C3F8E020D3F8E02002F040020592E1
:101C7000059AD3F8E02042F01002C3F8E020D3F830
:101C8000E03003F010030693069BDFF8B480224691
:101C900044F20101404602F061FCDFF8A8902246C0
:101CA0004FF48061484602F059FC274F224602213A
:101CB000384602F053FC4FF40053079308940994FC
:101CC0002946224802F03CFB44F201030793012617
:101CD000089609940A942946404602F031FB4FF4D5
:101CE0008068CDF81C80089609940A9429464846D5
:101CF00002F026FB802307934FF48813089309947E
:101D00002946134802F01CFBCDF81C804FF0020856
:101D1000CDF8208009940A940A230B9329460D4894
:101D200002F00EFBCDF81C80089609940A9429460F
:101D3000384602F005FB0DB0BDE8F08300440258C0
:101D400000040258000C0258001002580008025803
:101D50000018025800000258F0B583B007460E463E
:101D6000002404E0321B01A9FFF7CAFB2C46B44251
:101D700009D201A9054804F0E8FA3819251DB54231
:101D8000F0D80422EFE7012003B0F0BD981F002433
:101D900008B501F0EFF8002108BD000010B51446A9
:101DA0000138012801D9204610BD40F2E73392B234
:101DB000014804F05DFFF6E7B01F002472B6FEE7AD
:101DC00010B59CB04C22002109A81BF02FF820224E
:101DD000002101A81BF02AF8022002F0C5FB002315
:101DE0000093224A936923F4404343F400439361F0
:101DF000936903F440430093009B1C4B9B6913F4CD
:101E0000005FFAD02223099301220C9240230D9304
:101E10000F920220129000231393042414940C2197
:101E2000159116921794189019911A931B9309A85B
:101E300002F0C4FBA8B93F230193032302930023BC
:101E40000393082304934023059306934FF4806281
:101E500007920893012101A802F0B4FF18B91CB041
:101E600010BDFFF7ABFFFFF7A9FF00BF0048025806
:101E700008B501F045F8FFF7A3FFFFF7A7FEFFF74E
:101E8000A7FC00F00DF800F023F9FFF77BFDFFF74A
:101E9000ABFD00F05FFE19F0A3FF19F0F5FFFCE7C2
:101EA00008B50648064B03600023436004F088F938
:101EB00000B908BDFFF782FFFBE700BF981F0024B1
:101EC0000018024810B5B0B00446B822002102A89C
:101ED0001AF0ACFF22680F4B9A4201D030B010BD0F
:101EE0004FF400320023CDE9022302A803F002FAE6
:101EF00068B9094BD3F8DC2042F04002C3F8DC207B
:101F0000D3F8DC3003F040030193019BE6E7FFF7D1
:101F100055FFEEE7001802480044025882B0074B14
:101F2000D3F8F42042F00202C3F8F420D3F8F430DE
:101F300003F002030193019B02B070470044025872
:101F4000FEE7FEE7FEE7FEE7FEE7704770477047F3
:101F500008B501F003F808BD08B5024802F060F8C2
:101F600008BD00BFF81E002408B5024802F058F86A
:101F700008BD00BF581E002408B5024802F050F802
:101F800008BD00BFF81E002408B5024802F048F85A
:101F900008BD00BF581E00240120704708B51BF083
:101FA0003DFB162303604FF0FF3008BD08B54FF02E
:101FB000FF31FFF7F3FFFEE770B50C46164600252C
:101FC00006E0AFF30080214601F8010B01350C4615
:101FD000B542F6DB304670BD4FF0FF3070474FF42E
:101FE00000534B600020704701207047002070476D
:101FF00010B503460C4A0D490D48006840B10C4825
:1020000000680344521A934206D8094A136010BD6F
:102010000748084C0460F2E71BF000FB0C23036048
:102020004FF0FF30F3E700BF00000524000400007C
:10203000AC1F0024A06200241E4B1B6803F00F039A
:10204000062B06D81B4A136823F00F0343F007033F
:102050001360194B1A6842F001021A6000221A61DB
:102060001968164A0A401A60124B1B6813F0080FD1
:1020700006D0104A136823F00F0343F007031360E0
:102080000D4B00229A61DA611A620D4999620D497D
:10209000D9620D4919635A639963DA6319645A6402
:1020A000196821F4802119601A66084B43F2D202A4
:1020B0001A60704700200052004402587FEDF6EA93
:1020C000000202020000FF018002010100400052F4
:1020D00008B51748174B03604FF4E1334360002302
:1020E0008360C36003610C2242618361C361036248
:1020F0004362836204F089FE70B900210C4804F049
:10210000FCFE60B900210A4804F01CFF50B90848E1
:1021100004F0D4FE48B908BDFFF750FEEDE7FFF725
:102120004DFEEFE7FFF74AFEF1E7FFF747FEF2E764
:10213000B01F00240048004010B5B6B0044600218E
:1021400031913291339134913591B82202A81AF02D
:102150006DFE22681B4B9A4201D036B010BD0222A0
:102160000023CDE9022302A803F0C4F838BB164BC4
:10217000D3F8E82042F48022C3F8E820D3F8E8201E
:1021800002F480220092009AD3F8E02042F0080284
:10219000C3F8E020D3F8E03003F008030193019B7B
:1021A0004FF44073319302233293002333933493DB
:1021B0000723359331A9054802F0C2F8CDE7FFF7B0
:1021C000FDFDD4E70048004000440258000C0258CE
:1021D000DFF834D0FFF730FF0C480D490D4A0023DB
:1021E00002E0D458C4500433C4188C42F9D30A4ACC
:1021F0000A4C002301E013600432A242FBD31BF01F
:1022000013FAFFF735FE7047000005240000002494
:10221000481D0024F4840308481D0024A062002403
:10222000FEE708B519F0D4FD08BD00002DE9F04720
:1022300086B0814688462F4A1AF09CFC0546002449
:1022400032E0DFF8B4E0C4EBC4077F0110372B4E57
:102250003744C4EBC40C4FEA4C1C0CF1380CB444AA
:10226000C4EBC40A4FEA4A1A0AF1580AB244C4EB52
:10227000C4025201B832324404320592CDF810A0A3
:10228000CDF80CC00297C4EBC40206EB4216F2680C
:102290000192CDF800E01A4A1AF06CFC054408F1EE
:1022A000FF33AB421BDD0134092C18DC002C07DDA9
:1022B000144AA8EB050109EB05001AF05BFC054484
:1022C00009EB0500A8EB0501C4EBC4020B4B03EBC3
:1022D00042139A7A002AB4D0DFF82CE0B3E70B4A15
:1022E000A8EB050109EB05001AF044FC06B0BDE8B7
:1022F000F08700BF6C6602086466020810070024BD
:1023000074660208706602085C660208605C020877
:1023100038B505460024092C0ADCC4EBC403294661
:10232000054800EB4310FEF72BFF18B10134F2E72C
:102330004FF0FF34204638BD1007002408B50C4A82
:10234000002382F8603182F8F030C2F85C31094A2B
:102350001370094B1B68022B00DC08BD074B0B22D6
:10236000074903200FF0C8FB06480FF0D5FAF4E741
:10237000A8050024442000242C10002430960208D4
:10238000F46602081C6702080D4B93F8F03013B195
:102390000C4B1B7803B1704700B585B0094B012287
:1023A0001A7000230293084A0192009341F2883286
:1023B0000023064812F033FC05B05DF804FB00BFB3
:1023C000A8050024442000243D230008485F002481
:1023D000014B83F860017047A80500242DE9F04106
:1023E00082B005460C4690461F460B4601F5B0628A
:1023F00001F5C06105F092FF1C4E306090B99DF868
:10240000243001934FF47A730093089B3A46414677
:10241000284606F044F8154B1860A8B9002002B011
:10242000BDE8F081124B1B68002B02DC4FF000600E
:10243000F5E7104B2422104901200FF05DFB2146E7
:102440000E480FF069FAF1E7094B1B68002B02DC1C
:102450004FF00060E3E7074B2D22074901200FF002
:102460004BFB214606480FF057FAF1E730050024F0
:102470002C100024A096020838670208686702083A
:10248000906702083F4B1B68002B75DB70B586B068
:1024900004463C4B1B79002B70D10593394B9B684C
:1024A000D91D426A914227D3364D00216971D21A53
:1024B0003549194406F029F8AB680344AB60314D47
:1024C00000220292019205AB00936B7941F28831B0
:1024D000204606F027F82860002817DB50B92B4B60
:1024E000042283F860212A4B1B68022B37DC20462C
:1024F00006F0F8FA002042E007222349194406F0CA
:1025000004F8204A936803449360D8E72A460123DD
:102510002B711E4D002385F86031C5F85C31936046
:10252000F0351C4E0FCE0FC5336825F8023B1B0C4F
:102530002B7019F04DFC164B1B68022B01DC059823
:102540001DE0154B5322154903200FF0D5FA059BCA
:10255000226A0C49096812480FF0DEF9EFE70E4BCA
:1025600059220E4903200FF0C7FA226A054B196859
:102570000C480FF0D1F9BAE700207047002006B0F0
:1025800070BD00BF3005002400000608A805002427
:102590002C100024BC6702088896020838670208DD
:1025A000D0670208FC670208F0B587B004460E4603
:1025B00000250195042700979DF83010FFF70EFFC6
:1025C0003A463146204605F0A0FF0295019505AB3D
:1025D00000932B462A464FF47A71204605F0A2FF5D
:1025E0000546059B0BB9002803DA0A4B1B68002B34
:1025F00004DC204606F076FA07B0F0BD064B7622E2
:10260000064901200FF078FA2A46059904480FF090
:1026100083F9EEE72C10002474960208386702084C
:102620001868020870B584B05848FFF771FE584B1F
:10263000C0EBC00203EB4212D568D2F8DC60554B08
:102640001B68022B4FDC5149002281F8F020524BCD
:102650009A601A601A7101225A71D1F858310393A5
:102660004C4B1B68022B49DCECB2B06B009400238E
:1026700046F2010203A9FFF797FF444BD3F86431F8
:102680000293444B1B68022B43DCB06B0094002385
:102690004FF4C04202A9FFF787FF3E4B1B68022B95
:1026A00042DCB06B01230193384BD3F858310093CF
:1026B000002346F203022146FFF790FE064600285B
:1026C00048D1324B032283F86021012283F8542140
:1026D0000022C3F85C212F4B1B68022B30DC19F061
:1026E00077FB04B070BD2D4B83222D4903200FF0E2
:1026F00003FA29462B480FF00FF9A4E7274B96223F
:10270000274903200FF0F8F9039927480FF004F93F
:10271000AAE7224B9C22224903200FF0EDF90299EF
:1027200022480FF0F9F8B0E71C4BA0221C49032007
:102730000FF0E2F946F203011D480FF0EDF8B0E7A3
:10274000164BAD22164903200FF0D6F919480FF0A9
:10275000E3F8C4E7184C194B0FCB84E80F000023B3
:1027600084F87030E36684F864300A4B1B68002BF1
:10277000B5DD0A4BB3220A4901200FF0BDF93246FC
:1027800029460F480FF0C8F8A9E700BFA8050024A4
:10279000100700242C100024300500246496020841
:1027A000386702084C6802086868020888680208EE
:1027B000A8680208E468020898060024086902086C
:1027C0001869020830B5BDB03B4B93F86031002B5F
:1027D00018BF042B38D1384BD3F85831B3F5202F1C
:1027E00043D8354D2846FFF793FD0446C0EBC001A2
:1027F000E022324B03EB411104A8FEF781FE0123D6
:1028000085F86031204600F0CBFA002844D02C4BEC
:102810001B68012B35DC2B4D022302932A4B0193BD
:102820000024009440F2DC520023284612F0F7F90D
:102830000294264B0193009440F2A46200232846A0
:1028400012F0EDF93DB030BD1D4B1B68012BF9DDD9
:102850001F4BBA221F4902200FF04EF9164B93F876
:1028600060111D480FF058F8ECE7134C002384F872
:1028700060311A4BF0340FCB07C4238019F0A8FA4B
:10288000E0E7134BCB22134902200FF035F90799EB
:1028900013480FF041F8BEE7074C052384F8603178
:1028A000F034104D0FCD0FC40FCD0FC495E80300C9
:1028B00084E80300C6E700BFA80500241007002431
:1028C0002C100024485F0024D1230008252600088E
:1028D00054960208386702086C690208B469020855
:1028E000C4690208FC690208214B93F86031032B8C
:1028F00000D0704730B583B01D4D2846FFF708FD66
:102900000446C0EBC0021B4B03EB4213D3F8DC3090
:10291000986BFFF7B7FD184B9B68642202FB03F32B
:10292000D5F85821B3FBF2F3C5F85C31134B1B68A3
:10293000022B03DC19F04CFA03B030BD104BE72238
:10294000104903200FF0D8F8C4EBC404094B03EB83
:102950004413D3F8DC309B6B0093D5F85831064A0A
:102960009268D5F85C1108480EF0D6FFE2E700BF88
:10297000A805002410070024300500242C10002492
:102980004096020838670208246A020808B5EC225B
:10299000024B02FB0131FEF7B3FD08BD0000040845
:1029A000F8B507460E4600250D6000E001352F2DD5
:1029B00010DC3068EC24294604FB0070FFF7E6FFCA
:1029C000336803FB04F43959034A9142EED10133D1
:1029D0003360EBE7F8BD00BF45AB02012DE9F041E4
:1029E000ADF5315D88B007460E4608AC4FF4315264
:1029F000002120461AF01AFA07AB00251D6019467F
:102A00002046FFF7CDFF254A314638461AF0B2F886
:102A1000044633E0224A311B38191AF0ABF804445B
:102A200008AA4FF0EC0C0CFB05FC02EB0C080CF1B7
:102A30000801114406310CF13000104406300CF14D
:102A40005003134406330CF1B80E96440EF1020EF7
:102A50000CF1D80C624402320492CDF80CE00293DF
:102A60000190009108F104030E4A311B38191AF045
:102A700081F80444731EA34206DD0135079BAB4277
:102A800002DD002DCCDDC5E7074A311B38191AF0ED
:102A900071F80DF5315D08B0BDE8F0816C66020893
:102AA00070660208386A0208645C02082DE9F04783
:102AB000ADF5345D8CB08146884617461E460DF153
:102AC000040A42F62C542246002150461AF0AEF970
:102AD000002300931D4BCAF8003042F630536B447C
:102AE0001C1B4946201D1AF0DDFD414604F10E0075
:102AF0001AF0D8FD394604F136001AF0D3FD3146FC
:102B000004F156001AF0CEFD42F650536B4419689A
:102B100004F1BA001AF0C6FD42F654536B4419682A
:102B200004F1DA001AF0BEFD69463CA8FFF738FF51
:102B3000009B013300934FF43152214604480FF0BB
:102B400053FA0DF5345D0CB0BDE8F08745AB0201DA
:102B5000000004082DE9F047982019F067FB0546AE
:102B60000126067006724FF0040980F80990067479
:102B700080F8209080F8286080F8306080F8386015
:102B800080F840604FF0030AA0F854A0A0F86060FD
:102B9000002780F86C7080F86D7080F8747080F891
:102BA000907080F8917080F89270A0F89470DFF8BF
:102BB000CC81D8F800305A680C3242615A6824320D
:102BC00042625A68303242645A683C3282645A68BF
:102BD0004832C2645A689032C2635A68A83282612D
:102BE0005A68B432C2615A68C032C2605A68CC3284
:102BF00042605A68E43202655A68FC32C2625A681E
:102C000002F58A7282655A6802F59C72C2655A683A
:102C100002F5AE7242665A6802F5B47282665A686C
:102C20007832C0F888205A688432C0F88C205B68FB
:102C300003F584734363982019F0F8FA044606708C
:102C4000067280F80990067480F8209080F8286059
:102C500080F8306080F8386080F84060A0F854A0B8
:102C6000A0F8606080F86C7080F86D7080F8747007
:102C700080F8907080F8917080F89270A0F894704D
:102C80003F4F3B685A680C3242615A6824324262B4
:102C90005A68303242645A683C3282645A68483218
:102CA000C2645A689032C2635A68A83282615A6814
:102CB000B432C2615A68C032C2605A68CC324260D3
:102CC0005A68E43202655A68FC32C2625A6802F5F8
:102CD0008A7282655A6802F59C72C2655A6802F56A
:102CE000AE7242665A6802F5B47282665A687832E9
:102CF000C0F888205A688432C0F88C205B6803F5DD
:102D0000847343631F4B4FF4C26AC3F898A04FF417
:102D1000B269C3F89C90102683F8A0603346D8F8B7
:102D200000202946184807F0B3FF184D2860184BBB
:102D3000C3F898A0C3F89C9083F8A06033463A6823
:102D40002146144807F0A4FF134B18602A68134B60
:102D5000C3F8DC20C3F8BC21C3F89C22C3F87C2351
:102D6000C3F85C24C3F83C25C3F81C06C3F8FC0672
:102D7000C3F8DC07C3F8BC08BDE8F08700000024F6
:102D8000940200248C010024F81E00244C2000240E
:102D900020040024581E002448200024100700248A
:102DA000F8B50446092815D8C0EBC003374E06EB2A
:102DB0004316B57A05B3C0EBC002344B03EB4213A4
:102DC000DF6817F0FF0231D1314B1B68002B22DC8A
:102DD000002504E02E4B1B68002B02DC0025284652
:102DE000F8BD2C4B09222C4901200EF085FE21460E
:102DF0002A480EF091FDF1E7254B1B68002BEEDD14
:102E0000244B1022244901200EF076FE314624483E
:102E10000EF082FDE3E71F4B16221F4901200EF042
:102E20006BFE31461F480EF077FDD1E7C0EBC004C2
:102E3000164B03EB4413D3F8DC308121986904F07E
:102E400093FC044678B9124B1B68012BC7DD114B6C
:102E50002422114902200EF04FFEFAB231461248E8
:102E60000EF05AFDBBE70A4B1B68002B01DC002566
:102E7000B5E7084B1F22084901200EF03DFE23460E
:102E80003246F9B209480EF047FDF0E7100700247A
:102E90002C100024B0960208986A0208C86A02083A
:102EA000E06A0208F86A0208486B0208186B020818
:102EB000104B1B780BB90120704710B504464FF436
:102EC0007A70B0FBF3F30C4A1068B0FBF3F000F03B
:102ED000DDF868B90F2C01D901200AE00022214653
:102EE0004FF0FF3000F0BAF8044B1C60002000E007
:102EF000012010BDD00F00242C050024D40F002485
:102F000010B5032000F098F801F04AFE0F498B69D4
:102F1000C3F303230E4AD35C03F01F03D8408B692D
:102F200003F00F03D35C03F01F0320FA03F3094AF5
:102F30001360094B18600020FFF7BAFF10B101249D
:102F4000204610BD0446FEF7E9FFF9E700440258A9
:102F50004C660208280500242C050024034B1B782E
:102F6000034A11680B441360704700BFD00F002460
:102F700050200024014B1868704700BF50200024E7
:102F8000034A536823F4600303435360704700BF50
:102F900000040058002807DB00F01F02400901234D
:102FA0009340024A42F82030704700BF00E100E041
:102FB000002804DB0901C9B2044B1954704700F022
:102FC0000F000901C9B2024B1954704700E400E038
:102FD00014ED00E000B500F00700C0F1070CBCF1F3
:102FE000040F28BF4FF0040C031D062B0FD9C31E7E
:102FF0004FF0FF3E0EFA0CF021EA000199400EFA64
:1030000003FE22EA0E0241EA02005DF804FB0023FF
:10301000EEE70000BFF34F8F0549CA6802F4E06293
:10302000044B1343CB60BFF34F8F00BFFDE700BFDE
:1030300000ED00E00400FA050649CB6823F4E063E4
:103040001B041B0C000200F4E0600343024A1A4315
:10305000CA60704700ED00E00000FA0510B50446B4
:10306000054BD868C0F30220FFF7B4FF01462046A5
:10307000FFF79EFF10BD00BF00ED00E008B5FFF7B1
:1030800089FF08BD08B5FFF7C5FF00000138B0F1A2
:10309000807F0BD24FF0E0235861054AF02182F87F
:1030A00023100020986107221A61704701207047A1
:1030B00000ED00E030B48B680A6813430A7943EAF4
:1030C000C2630A7B43EAC2534A7B43EA82538A7B48
:1030D00043EA4253CA7B43EA02530A7C002A40F087
:1030E000B0804FF4002213434A7C002A40F0AB80AA
:1030F0004FF4003213438A7C43EA02434A69134384
:103100008A6913430A7F43EA02334A7F43EAC223B0
:103110008A7F002A40F099804FF480621343CA7F6F
:1031200043EA422391F82020002A40F090804FF497
:10313000807213434A6A134391F8282043EA02132A
:10314000CA6A13430468226822F07F4222F47B0299
:1031500022F4FE4222F07C0213432360CA6B91F8F2
:1031600038301B0643EA426391F8302043EA824339
:1031700091F8312043EA424391F83220002A68D185
:103180004FF4803213434A6B13430468626822F0A1
:103190007C5222F4EF2222F4FF6222F00702134352
:1031A000636091F840204B6C43EA02220468E568B2
:1031B0002B4B2B401343E36091F854200B6D43EAF3
:1031C000420391F84C20002A45D1802213438A6C97
:1031D00043EA02430468226F22F0F2021204120C46
:1031E0001343236791F8562091F8553042EA430281
:1031F0000468D4F8903023F003031343C4F89030EC
:103200000268D2F8003D23F072038C6D2343C2F8AC
:10321000003DCB6D91F86020FAB94022134391F83C
:10322000612043EA021391F8622043EAC203016875
:10323000D1F8302D22F07B021343C1F8303D30BC71
:10324000704700224FE7002254E7002266E7002281
:103250006FE7002296E70022B8E70022DEE700BF12
:10326000F0FEFFFF10B4026802F580521468234B91
:1032700023400C68234313600A798B6843EA0233C6
:103280000A7B43EAC232036803F5805CDCF8044041
:103290001B4B23401343CCF804304A7B0B6A43EAB0
:1032A000024C026802F58052D2F80041154B2340CF
:1032B00043EA0C03C2F800310B690A7D43EA0213AA
:1032C0004A7F43EA0232036803F5805CDCF804417C
:1032D0000D4B23401343CCF804310B7F896941EA3D
:1032E000C371026802F58052D2F80801074B03400F
:1032F0000B43C2F8083110BC704700BFFD87FFFFC9
:10330000FE2FFFFF00C0FEFFEFEFC0FFFFFFC07FFB
:1033100070B5A2B0064601258DF8335000241294F2
:103320008DF841408DF843408DF828508DF8565067
:103330008DF832508DF84C408DF884504FF4005386
:103340000F938DF85C4018948DF885408DF8864079
:103350004FF4C36316938DF830400B948DF83550BD
:103360008DF836408DF840401D941B9414948DF8D0
:1033700064408DF87A408DF84250202320938DF8D8
:1033800044508DF855404FF0405309934FF480431B
:103390000E938DF8314002231F938DF878408DF8FD
:1033A00079408DF854408DF834501A948DF870504F
:1033B00009A9FFF77FFE8DF80450029500948DF85F
:1033C0001C408DF80D408DF80C404FF4001306930F
:1033D0008DF8144004938DF81D404FF40673089344
:1033E00069463046FFF73EFF22B070BD10B40022A0
:1033F00010E0C46802EB42034FEAC30C04EBC303C2
:10340000002144F80C1059609960D960911D40F872
:1034100021300132032AECD900238362036803F5CB
:1034200080530322C3F82C21C268036803F580533C
:10343000C3F81421C268036803F58053C3F8202140
:1034400010BC704710B4002113E0046901EB410384
:103450004FEAC30C04EBC303002244F80C205A606B
:103460009A60DA601A615A6101F1120240F8223062
:1034700001310329E9D90023C36503668366C36666
:103480008365036803F580530322C3F83021026982
:10349000036803F58053C3F81C21036903F1480254
:1034A000036803F58053C3F8282110BC704700005F
:1034B00038B505460368D3F8004224F4706401F07F
:1034C000CBFD104B984205D844F400742B68C3F828
:1034D000004238BD0C4B984202D244F44074F5E7E8
:1034E0000A4B9842F2D90A4B984202D844F48074AD
:1034F000ECE7084B984202D844F48064E6E744F4D1
:10350000A064E3E7BF0E160200879303FFE0F50512
:103510007FD1F0087FB2E60E002800F0A78030B51A
:1035200083B00446D0F884309BB3514BD3F8F420D9
:1035300042F00202C3F8F420D3F8F43003F002039F
:103540000193019B237A53BB0020FFF719FD494BE0
:103550005B68236803F580531A6842F001021A6021
:10356000FFF708FD0546236803F580531B6813F039
:10357000010F19D0FFF7FEFC401BB0F5FA7FF2D91E
:103580000423C4F88830E023C4F88430012003B059
:1035900030BD2323C0F88430FEF750F9C5E74FF45F
:1035A0000000FFF7EDFCD2E72046FFF781FF01F0B6
:1035B00053FD314BA3FB00239B0C2268013BC2F857
:1035C000DC302046FFF7A4FE226802F58052D2F8D4
:1035D000003123F4E01343F40023C2F800316269A0
:1035E00012F0030F06D00120C4F88800E023C4F8CD
:1035F0008430CCE7216801F58051D1F808316FF3B0
:103600004E0343EA4203C1F808312046FFF7EEFEBD
:103610002046FFF717FF636859791B79226843EA50
:103620000123C2F800336268D17893781B0443EA1F
:103630000163517843EA0123117822680B43C2F8F1
:1036400004332268D2F80C170C4B0B43C2F80C372A
:103650002268D2F810170A4B0B43C2F8103700202B
:10366000C4F888001023C4F8843090E70120704724
:10367000004402580004005883DE1B436000020C23
:1036800000C0200C10B4416B0468D4F88430724A36
:10369000134043EA8103C4F884300468D4F88430CA
:1036A00023F47F03D0F838C043EA0C43C4F88430D5
:1036B000836B0B440468D4F88810114041EA8301FD
:1036C000C4F888100468D4F8881021F4FE01D0F8FA
:1036D0003CC041EA0C41C4F88810C16B03EB4103C4
:1036E0000468D4F8A010114041EA8301C4F8A01086
:1036F0000468D4F8A01021F4FE01D0F840C041EADB
:103700000C41C4F8A010016C446C04FB0133046844
:10371000D4F8B010114041EA8301C4F8B010046835
:10372000D4F8B01021F4FE01D0F848C041EA0C41B1
:10373000C4F8B010816CC46C04FB01330468D4F885
:10374000AC10114041EA8301C4F8AC10016D446D26
:1037500004FB01330468D4F8F010114041EA8301FE
:10376000C4F8F0100468D4F8F01021F47C11D0F8FB
:1037700058C041EA0C41C4F8F010816D03EB4103DD
:103780000468D4F8C0100A4042EA8303C4F8C03089
:103790000268D2F8C03023F47C13C16D43EA0143C0
:1037A000C2F8C0300268D2F8C03023F07C53016EFA
:1037B00043EA0163C2F8C030436B284A1A449200BE
:1037C000C266836B02EB83030367C16B03EBC10328
:1037D0004367016C446C04FB01F103EB81038367D5
:1037E000816CC46C04FB01F103EB8103C367016DC1
:1037F000446D04FB01F103EB8103C0F88030816D5F
:1038000003EBC103C0F88430816EC46D01FB04FC7E
:1038100003EB8C03C0F88830046E04FB01F103EB6A
:103820008103C0F890300E498B420DD9D0F89C30FE
:1038300043F02003C0F89C30032380F89830012027
:1038400007E0002342F8043BD0F890309342F8D8C8
:10385000002010BC704700BF0300FFFF002B0010CA
:10386000FCD3004070B54C68FCB90D698C682543E9
:103870000C6845EA84450E6ACC6944EA06648E69A0
:1038800034434E693443CE6844EA0644D0F8846039
:10389000806E00FB03F306EB830E46F82350CEF850
:1038A00004400EF1080E002019E00C698D682543D4
:1038B0000C68254345F08045DDE702EB000C9CF8E1
:1038C00003409CF802301B0443EA04639CF8014067
:1038D00043EA0423145C23434EF8043B0430CB68D2
:1038E000024CE35C8342E8D870BD00BFC09602087A
:1038F00030B595B004464C22A04901A8FDF700FE62
:10390000002C00F0388123689D4A934220D094F81F
:1039100098300BB32268936923F010039361FFF78B
:1039200029FB054623689A6912F0080F1AD0FFF7A1
:1039300021FB431B0A2BF5D9D4F89C3043F001033B
:10394000C4F89C30032384F89830012015B030BDB2
:1039500003F580736360DAE784F899302046FEF758
:1039600075F8D7E79A6942F001029A61FFF702FB06
:10397000054623689A6912F0010F0FD1FFF7FAFA92
:10398000401B0A28F5D9D4F89C3043F00103C4F851
:103990009C30032384F898300120D7E79A6942F0DD
:1039A00002029A61237C012B40D02268936943F084
:1039B00040039361637C012B3ED02268936923F41A
:1039C00080439361A37C012B3CD02268936943F42C
:1039D000805393612268936923F44073A1680B4379
:1039E00093612268936923F0A403936122681369A9
:1039F00023F010031361E368012B29D0002B2CD096
:103A0000022B00F09B802268936943F0800393614E
:103A10002268136943F010031361E368032B1CD180
:103A20002268936943F02003936116E0226893694A
:103A300023F040039361BDE72268936943F4804318
:103A40009361BFE72268936923F480539361C1E7D0
:103A50002268936943F004039361A3695A1EE369E2
:103A6000013B1B0243EA4263226A013A1343626943
:103A7000013A216843EA0243CB61A368B3F5407F72
:103A800062D0236E33B12268D2F8C030616E0B432E
:103A9000C2F8C030E36D226ED3420DD02168D1F858
:103AA000C83023F00703A26E14A800EB820252F87C
:103AB0004C2C1343C1F8C830236C6BB12168D1F88A
:103AC000BC3023F00703626C14A800EB820252F8AA
:103AD0004C2C1343C1F8BC30A36C73B12168D1F8EE
:103AE000BC3023F07003E26C14A800EB820252F8A1
:103AF0004C2C43EA0213C1F8BC30236D73B121682A
:103B0000D1F8BC3023F4E063626D14A800EB8202AC
:103B100052F84C2C43EA0223C1F8BC302268184BFF
:103B20009A4222D00023C4F89430C4F89C30012378
:103B300084F898302046FFF7A5FD07E722689369CF
:103B400043F02003936188E7A36A013BE26A013AEC
:103B500043EA0223226B013A43EA0213626A013A02
:103B6000216843EA0243CB608BE76268936823F0E5
:103B700003039360D6E70120E8E600BF685C020813
:103B800000A0004090F89830013BDBB2012B07D930
:103B9000D0F89C3043F00203C0F89C3001207047FD
:103BA0000B68DBB9CB68072B0ED08A68DB0643EACB
:103BB00082730A6943EA02434A691343C26E496841
:103BC00042F82130002070470A69CB691B0243EAA2
:103BD00002438A69134343F06053EFE7CA680B69F5
:103BE00043EA4273072A0DD04A69D1F808C042EA75
:103BF0008C72006F496800EBC10C40F83130CCF892
:103C00000420DFE78A69F4E790F898C0BCF1010F5F
:103C100007D0D0F89C3043F00403C0F89C3001205A
:103C20007047920042EA011242EA43030168009A97
:103C30001A43C1F880200020704790F89830012B7B
:103C400007D0D0F89C3043F00403C0F89C3001202A
:103C50007047022380F898300268936923F00103CB
:103C600093610023C0F89C301846704790F8983054
:103C7000022B3ED10268936943F001039361002354
:103C80000268916911F0010F0ED1322B01D8013376
:103C9000F6E7D0F89C3043F00103C0F89C300323D2
:103CA00080F8983001207047936923F010039361E6
:103CB00000230268916911F0080F0ED0322B01D851
:103CC0000133F6E7D0F89C3043F00103C0F89C3094
:103CD000032380F8983001207047936943F0020372
:103CE00093610023C0F89430012280F89820184690
:103CF0007047D0F89C3043F00803C0F89C30012096
:103D0000704738B5044690F89830022B2BD10368E1
:103D1000D3F8C00010F07C5F0CD0D3F8C40010F4CE
:103D2000001F0FD0D4F89C3043F40073C4F89C30CB
:103D300001201FE0D4F89C3043F02003C4F89C30ED
:103D4000012017E0D3F8C450C5F304452B462046A4
:103D5000FFF788FD22680123AB40C2F8D030C4F8D9
:103D60009430002006E0D0F89C3043F00803C0F8FF
:103D70009C30012038BD000070B590F89840022CAE
:103D800040F0DE8040290CD041293DD0046D8C42AA
:103D90006DD8D0F89C3043F02003C0F89C3001204F
:103DA000D5E00468D4F8A05015F4FE0F0CD0D4F878
:103DB000A45015F07F0F0FD1D0F89C3043F48073DE
:103DC000C0F89C300120C2E0D0F89C3043F02003C2
:103DD000C0F89C300120BAE0D4F8A45015F08075EA
:103DE00004D0D4F8A050002D0CDB0025D4F8A4405A
:103DF000C4F305242544446C05FB04F4466F06EB2C
:103E0000840E3BE00125F1E70468D4F8B05015F4C6
:103E1000FE0F0CD0D4F8B45015F07F0F0FD1D0F8AE
:103E20009C3043F48073C0F89C3001208FE0D0F8C0
:103E30009C3043F02003C0F89C30012087E0D4F888
:103E4000B45015F0807504D0D4F8B050002D0CDBC0
:103E50000025D4F8B440C4F305242544C46C05FB04
:103E600004F4866F06EB840E08E00125F1E7C56FC8
:103E7000446D01FB04F405EB840E0025DEF80040E0
:103E800004F08044546064BBDEF80040C4F38A440C
:103E90001460DEF8004004F000549460DEF8004046
:103EA00004F000441461BEF80440D461BEF806403A
:103EB00004F00F04D460DEF8044004F4801454616C
:103EC000DEF8044004F4001494619EF8074004F006
:103ED0007F041462DEF80440E40F54624FF0000CDB
:103EE0000CE0DEF8004024F060441460D1E70EEBF3
:103EF0000C04247A03F80C400CF1010C144CD66825
:103F0000A45D6445F3D8402909D041290CD01F296C
:103F10000ED8026801238B40C2F8983002E0036893
:103F2000C3F8A850002012E00368C3F8B850F9E7BE
:103F300001F01F01026801238B40C2F89C30F1E7B9
:103F4000D0F89C3043F00803C0F89C30012070BDCD
:103F5000C096020803681B6CDAB20A60C3F306223B
:103F60004A60C3F3C0328A60C3F30743CB600020CA
:103F70007047000090F89830013BDBB2012B07D965
:103F8000D0F89C3043F00203C0F89C300120704709
:103F900010B403689C6D0C4223D1DC6D44F0010425
:103FA000DC6511F4007F05D00468D4F8E0301343D9
:103FB000C4F8E03011F4806F05D00468D4F8E43020
:103FC0001343C4F8E4300068436D0C4A0A401343BD
:103FD00043650B4A536943EA91735361002010BC57
:103FE00070479C6D31EA040402D00324DC65D8E7F5
:103FF000DC6D44F00204DC65D3E700BFFFFFCF3F78
:1040000000A800407047704770477047704770477E
:1040100070477047704770477047704770477047E8
:104020002DE9F04F83B00446904B1A695B69134049
:1040300001939B07009303681A6D02F4704A5A6D4E
:104040000AEA020A1A6D02F00F095A6D09EA02091A
:104050001A6D02F0F0085A6D08EA02081E6D06F0AB
:1040600071565A6D16401F6D07F060775A6D1740F4
:104070005D6DD3F850B015F4807F02D01BF4807FC3
:1040800064D115F4806F02D01BF4806F67D1009B60
:10409000002B74D1BAF1000F7ED1B9F1000F40F0BE
:1040A0008780B8F1000F40F08F8015F4006F03D0C7
:1040B0001BF4006F40F0948015F4007F03D01BF4D4
:1040C000007F40F0988015F4002F03D01BF4002FE0
:1040D00040F0A18015F4803F03D01BF4803F40F0F6
:1040E000A58015F4802F03D01BF4802F40F0A98009
:1040F00015F4003F0FD01BF4003F0CD023684FF4A1
:1041000000321A65594B00221A61D4F89C3043F0F2
:104110008003C4F89C30002F40F09E804EB123688D
:104120001E65B20F514B1A61D4F89C303343C4F86A
:104130009C3022684E4B9A4200F09C80D4F89C3010
:10414000002B40F0F98003B0BDE8F08F4FF480728F
:104150001A65464B00221A61FFF75BFF91E723685F
:10416000D3F8DC10D3F8E4204FF4806018653F4B9F
:104170000020186111402046FFF747FF87E72368BA
:1041800000221A65019B03F00303384A136100996A
:104190002046FFF737FF7DE72368C3F850A04FEABA
:1041A0009A72324B1A6151462046FFF72CFF74E792
:1041B0002368C3F850904FEA99722C4B1A61494614
:1041C000204606F033FC6CE72368C3F850804FEAC2
:1041D0009872264B1A614146204606F031FC64E78E
:1041E00023684FF400621A65204B00221A612046B2
:1041F000FFF70AFF60E72368D3F8D810D3F8E02070
:104200004FF400701865194B0020186111402046CA
:1042100006F0C2FC57E723684FF400221A65134BDF
:1042200000221A612046FFF7F1FE53E723684FF49E
:1042300080321A650D4B00221A612046FFF7E7FE17
:104240004FE723684FF480221A65084B00221A6159
:104250002046FFF7DDFE4BE723681F65BA0F034BCF
:104260001A6139462046FFF7D6FE57E700A80040FE
:1042700000A0004063689A6812F0030F3FF45EAF3D
:10428000196A01F00F015A6A186A00F03008586A7A
:1042900008EA00081F6A07F4C077586A07401E6AD8
:1042A00006F4FC46586A06401D6A05F4F025586A73
:1042B0000540D3F82490D3F820A011401CD1B8F1C8
:1042C000000F1ED119F0400F02D01AF0400F20D17C
:1042D0005FBB36B163681E62D4F89C303343C4F8C8
:1042E0009C30002D3FF42AAF63681D62D4F89C30E7
:1042F0002B43C4F89C3021E719622046FFF78CFE5F
:10430000DDE76368C3F8208041462046FFF785FE5D
:10431000D8E76368D96BDA6B4020186202F03F027D
:10432000090C2046FFF77AFED2E763681F62394620
:104330002046FFF774FECCE72046FFF76BFE02E74E
:1043400070B582B000236EE085685E000324B4403F
:1043500025EA0405CC68B4402C438460456825EA0E
:104360000C054C68C4F300149C402C4344606DE081
:10437000DD08083550F8254003F0070C4FEA8C0C97
:104380004FF00F0E0EFA0CFE24EA0E0E0C6904FA22
:104390000CF444EA0E0440F825406FE0092400E0E4
:1043A000002404FA0EF42C430CF1020C684D45F87D
:1043B0002C404FF0B0442568D44325EA0206D1F8DA
:1043C00004C01CF4801F01D042EA05064FF0B0453E
:1043D0002E606D6804EA0506D1F804C01CF4001FC5
:1043E00001D042EA05064FF0B0456E60D5F8845022
:1043F00004EA0506D1F804C01CF4003F01D042EAEB
:1044000005064FF0B045C5F88460D5F880502C40C3
:104410004E6816F4803F01D042EA05044FF0B042E6
:10442000C2F8804001330A6832FA03F400F08D804C
:104430004FF0010C0CFA03FC1CEA0202F2D04C68AB
:1044400004F00304013C012C7FF67EAF4C6804F0BD
:104450000304032C0CD0C4685D004FF0030C0CFA6D
:1044600005FC24EA0C0C8C68AC4044EA0C04C460E3
:104470004C6804F00304022C3FF47AAF04684FEA5E
:10448000430E4FF0030C0CFA0EFC24EA0C0C4C68A3
:1044900004F0030404FA0EF444EA0C0404604C68CB
:1044A00014F4403FBED02B4CD4F8F45045F0020534
:1044B000C4F8F450D4F8F44004F002040194019CD0
:1044C0004FEA930C0CF10205214C54F8255003F0EF
:1044D000030E4FEA8E0E0F2404FA0EF425EA0405AB
:1044E0001D4CA0423FF45CAF04F58064A0421ED096
:1044F00004F58064A0421CD004F58064A0421AD068
:1045000004F58064A04218D004F58064A04216D05F
:1045100004F58064A04214D004F58064A04212D057
:1045200004F50064A0423FF439AF0A2439E70124BE
:1045300037E7022435E7032433E7042431E7052471
:104540002FE706242DE707242BE702B070BD00BF3C
:104550000004005800440258000002580AB181616A
:104560007047090481617047134BDB6813F0040F37
:1045700007D1114BDB6803F0070383421AD00120F7
:10458000704710B50C4AD36823F007030343D36088
:10459000FEF7F0FC0446084B5B6813F4005F07D19C
:1045A000FEF7E8FC001BB0F57A7FF4D9012000E0AB
:1045B000002010BD0020704700480258002800F07D
:1045C000D58238B50446036813F0010F25D0A04A00
:1045D000136903F03803926A102B15D0182B0FD0F3
:1045E0006368B3F5803F3FD0002B53D1984B1A68D6
:1045F00022F480321A601A6822F480221A6038E0AD
:1046000002F00302022AEBD1914B1B6813F4003F26
:1046100003D06368002B00F0AB82236813F0020F15
:1046200000F088808A4A1369926A13F038035AD0DE
:10463000182B55D0E368002B00F0A98084490A6844
:1046400022F0190213430B60FEF794FC0546804BE1
:104650001B6813F0040F40F09180FEF78BFC401BA9
:104660000228F4D903208AE2794A136843F480339C
:10467000136063682BB3FEF77DFC0546744B1B6823
:1046800013F4003FC9D1FEF775FC401B6428F5D92F
:10469000032074E2B3F5A02F09D06D4B1A6822F401
:1046A00080321A601A6822F480221A60E1E7684BAF
:1046B0001A6842F480221A601A6842F480321A6042
:1046C000D7E7FEF757FC0546614B1B6813F4003F24
:1046D000A3D0FEF74FFC401B6428F5D903204EE21F
:1046E00012F0030FA6D15A4B1B6813F0040F03D02E
:1046F000E368002B00F03E82554A136823F019034B
:10470000E1680B431360FEF735FC0546504B1B6810
:1047100013F0040F06D1FEF72DFC401B0228F5D93B
:1047200003202CE24A4A536823F0FE43216943EAFE
:1047300001635360236813F0100F51D0444A13698A
:1047400003F03803926A082B39D0182B33D0E36971
:10475000002B69D03E4A136843F080031360FEF7D4
:1047600009FC05463A4B1B6813F4807F53D1FEF7D2
:1047700001FC401B0228F5D9032000E2344A5368AB
:1047800023F0FE43216943EA01635360D2E7304AD4
:10479000136823F001031360FEF7ECFB05462C4B76
:1047A0001B6813F0040FC5D0FEF7E4FB401B022882
:1047B000F5D90320E3E102F00302012AC7D1244B1B
:1047C0001B6813F4807F03D0E369802B40F0D48111
:1047D0001F4AD36823F07C53216A43EA0163D36004
:1047E000236813F0080F49D06369002B32D0184AB0
:1047F000536F43F001035367FEF7BCFB0546144BB0
:104800005B6F13F0020F39D1FEF7B4FB401B022897
:10481000F5D90320B3E10E4AD36823F07C53216A13
:1048200043EA0163D360DBE7094A136823F080039E
:104830001360FEF79FFB0546054B1B6813F4807F52
:10484000CED0FEF797FB401B0228F5D9032096E156
:10485000004402589D4A536F23F001035367FEF74B
:1048600089FB0546994B5B6F13F0020F06D0FEF7EC
:1048700081FB401B0228F5D9032080E1236813F057
:10488000200F29D0A3699BB1904A136843F4805349
:104890001360FEF76FFB05468C4B1B6813F4005F3B
:1048A0001AD1FEF767FB401B0228F5D9032066E109
:1048B000864A136823F480531360FEF75BFB0546BA
:1048C000824B1B6813F4005F06D0FEF753FB401BBE
:1048D0000228F5D9032052E1236813F0040F21D1F7
:1048E000636A002B00F04A81784A126902F03802AC
:1048F000182A00F0F180022B75D0744A136823F057
:1049000080731360FEF736FB0446704B1B6813F090
:10491000007F00F0D880FEF72DFB001B0228F4D9A1
:1049200003202CE16A4A136843F480731360FEF796
:1049300021FB0546664B1B6813F4807F06D1FEF70A
:1049400019FB401B6428F5D9032018E1A368012B4B
:104950000AD00BBB5D4B1A6F22F001021A671A6F67
:1049600022F004021A6704E0584A136F43F001036F
:104970001367A36833B3FEF7FDFA0546534B1B6F6D
:1049800013F0020FACD1FEF7F5FA401B41F2883369
:104990009842F3D90320F2E0052B09D04B4B1A6F54
:1049A00022F001021A671A6F22F004021A67E0E788
:1049B000464B1A6F42F004021A671A6F42F0010266
:1049C0001A67D6E7FEF7D6FA0546404B1B6F13F081
:1049D000020F85D0FEF7CEFA401B41F28833984291
:1049E000F3D90320CBE0394A136823F080731360B6
:1049F000FEF7C0FA0546354B1B6813F0007F06D062
:104A0000FEF7B8FA401B0228F5D90320B7E02F4B78
:104A1000996A304A0A40A16AE06A41EA00110A43F1
:104A20009A62226B013AC2F30802616B01394902B2
:104A300089B20A43A16B0139090401F4FE010A435A
:104A4000E16B0139090601F0FE410A431A63DA6A93
:104A500022F00102DA625A6B6FF3CF02A16C42EAD4
:104A6000C1025A63DA6A22F00C02216C0A43DA624C
:104A7000DA6A22F00202616C0A43DA62DA6A42F40C
:104A80008032DA62DA6A42F40032DA62DA6A42F4D6
:104A90008022DA62DA6A42F00102DA621A6842F0CF
:104AA00080721A60FEF766FA0446084B1B6813F022
:104AB000007F06D1FEF75EFA001B0228F5D903201D
:104AC0005DE000205BE0002059E000BF0044025898
:104AD000004802580CFCFFFF30498A6A086B012B22
:104AE0004ED002F00303A16A8B424BD1C2F30512F0
:104AF000E36A9A4248D1C0F30802236B013B9A4211
:104B000044D1C0F34622636B013B9A4240D1C0F3CB
:104B10000642A36B013B9A423CD1C0F30660E36BB3
:104B2000013B984238D11D4B5B6BC3F3CC03A26CA5
:104B30009A4201D1002022E0184AD36A23F00103EF
:104B4000D362FEF717FA0546FEF714FAA842FBD027
:104B5000124A536B6FF3CF03A16C43EAC103536353
:104B6000D36A43F00103D362002008E001207047BC
:104B7000012004E0012002E0012000E0002038BD17
:104B80000120FCE70120FAE70120F8E70120F6E721
:104B90000120F4E70120F2E70120F0E70044025889
:104BA000F8B5814B1B6903F03803102B00F0F4803B
:104BB000182B0FD0002B40F0F2807B4B1B6813F0BA
:104BC000200F00F0EE80784B1B68C3F3C103774CD5
:104BD000DC40E2E0744B9D6A05F003059C6AC4F377
:104BE0000514D86A00F001005B6BC3F3CC0303FB30
:104BF00000F0FCF7B9F80646002C00F0CE80012D3D
:104C000056D0022D00F08480002D40F0A380664B2A
:104C10001B6813F0200F29D0634F3B68C3F3C10317
:104C20006248D840FCF7A0F805462046FCF79CF8FF
:104C300001462846FCF7A4F90446386BC0F3080087
:104C4000FCF792F805464FF064513046FCF7E4F863
:104C500001462846FBF7D8FF4FF07E51FBF7D4FF03
:104C600001462046FCF7D8F8044642E02046FCF70F
:104C70007BF801464E48FCF783F904464A4B186B13
:104C8000C0F30800FCF770F805464FF06451304659
:104C9000FCF7C2F801462846FBF7B6FF4FF07E51FD
:104CA000FBF7B2FF01462046FCF7B6F8044620E0C9
:104CB0002046FCF759F801463E48FCF761F90446E6
:104CC000394B186BC0F30800FCF74EF805464FF05F
:104CD00064513046FCF7A0F801462846FBF794FFE4
:104CE0004FF07E51FBF790FF01462046FCF794F809
:104CF00004462D4B1B6BC3F34623581CFCF734F8BA
:104D000001462046FCF73CF9FCF7FCF9044644E078
:104D10002046FCF729F801462748FCF731F90446FC
:104D2000214B186BC0F30800FCF71EF805464FF046
:104D300064513046FCF770F801462846FBF764FFE3
:104D40004FF07E51FBF760FF01462046FCF764F808
:104D50000446CEE72046FCF707F801461548FCF765
:104D60000FF90446104B186BC0F30800FBF7FCFF6B
:104D700005464FF064513046FCF74EF80146284690
:104D8000FBF742FF4FF07E51FBF73EFF0146204606
:104D9000FCF742F80446ACE7084C2046F8BD084C46
:104DA000FBE7024CF9E700BF004402580090D00333
:104DB0000024744C0024744A0024F44A00127A003F
:104DC00000093D00002800F0328170B50D46044610
:104DD0009B4B1B6803F00F038B420BD2984A13685E
:104DE00023F00F030B431360136803F00F038B4290
:104DF00040F01F81236813F0040F0CD02269914BFF
:104E00009B6903F070039A4205D98E498B6923F0A0
:104E100070031A438A61236813F0080F0CD062698B
:104E2000884BDB6903F070039A4205D98549CB6949
:104E300023F070031A43CA61236813F0100F0CD0DB
:104E4000A269804BDB6903F4E0639A4205D97D498E
:104E5000CB6923F4E0631A43CA61236813F0200F7F
:104E60000CD0E269774B1B6A03F070039A4205D9B4
:104E700074490B6A23F070031A430A62236813F023
:104E8000020F0CD0E2686F4B9B6903F00F039A424C
:104E900005D96C498B6923F00F031A438A61236893
:104EA00013F0010F41D0674A936923F47063A1683E
:104EB0000B4393616368022B0AD0032B27D0012B8D
:104EC0002CD0604A126812F0040F06D10120ADE028
:104ED000126812F4003F00F0AE805A490A6922F0CD
:104EE000070213430B61FEF745F80646554B1B6955
:104EF00003F038036268B3EBC20F16D0FEF73AF83E
:104F0000801B41F288339842F0D903208EE04D4A4D
:104F1000126812F0007FE0D1012087E0494A126850
:104F200012F4807FD9D1012080E0236813F0020FB2
:104F30000CD0E268434B9B6903F00F039A4205D201
:104F400040498B6923F00F031A438A613C4B1B686D
:104F500003F00F03AB420AD9394A136823F00F0359
:104F60002B431360136803F00F03AB4265D1236832
:104F700013F0040F0CD02269324B9B6903F07003CD
:104F80009A4205D22F498B6923F070031A438A6134
:104F9000236813F0080F0CD062692A4BDB6903F019
:104FA00070039A4205D22749CB6923F070031A4354
:104FB000CA61236813F0100F0CD0A269214BDB6982
:104FC00003F4E0639A4205D21E49CB6923F4E063FF
:104FD0001A43CA61236813F0200F0CD0E269194B01
:104FE0001B6A03F070039A4205D216490B6A23F03C
:104FF00070031A430A62FFF7D3FD12498B69C3F3AA
:105000000323114AD35C03F01F03D8408B6903F0DC
:105010000F03D35C03F01F0320FA03F30B4A136062
:105020000B4B18600B4B1868FDF742FF70BD012059
:1050300070470120FAE70120F8E70120F6E700BFFA
:1050400000200052004402584C6602082805002443
:105050002C050024D40F002408B5FFF7A1FD0B4A4E
:105060009369C3F303230A49CB5C03F01F0320FABF
:1050700003F3926902F00F02885C00F01F0023FA2C
:1050800000F0044A1060044A136008BD004402584E
:105090004C660208280500242C05002408B5FFF7FB
:1050A000DBFF054BDB69C3F30213044AD35C03F057
:1050B0001F03D84008BD00BF004402584C660208D8
:1050C00008B5FFF7C9FF054BDB69C3F30223044AA8
:1050D000D35C03F01F03D84008BD00BF0044025852
:1050E0004C660208404B9B6A03F00303032B79D004
:1050F00070B505460E463C4A136823F08063136082
:10510000FDF738FF0446384B1B6813F0006F06D0DC
:10511000FDF730FF031B022BF5D9032070BD324B86
:105120009A6A22F47C32296842EA01329A626A68F9
:10513000013AC2F30802A9680139490289B20A4357
:10514000E9680139090401F4FE010A4329690139BA
:10515000090601F0FE410A439A63DA6A22F0C002AE
:1051600069690A43DA62DA6A22F02002A9690A430D
:10517000DA62DA6A22F01002DA62DA6B6FF3CF02D7
:10518000E96942EAC102DA63DA6A42F01002DA62DD
:10519000C6B91A46DB6A43F40023D362124A136885
:1051A00043F080631360FDF7E5FE04460E4B1B6879
:1051B00013F0006F14D1FDF7DDFE001B0228F5D9B6
:1051C0000320ABE7012E05D0074AD36A43F400134E
:1051D000D362E3E7044AD36A43F48013D362DDE782
:1051E00000209BE70120704700440258404B9B6A17
:1051F00003F00303032B79D070B505460E463C4AF5
:10520000136823F080531360FDF7B4FE0446384B57
:105210001B6813F0005F06D0FDF7ACFE031B022BEA
:10522000F5D9032070BD324B9A6A22F07C7229684E
:1052300042EA01529A626A68013AC2F30802A96816
:105240000139490289B20A43E9680139090401F4C4
:10525000FE010A4329690139090601F0FE410A43AA
:105260001A64DA6A22F4406269690A43DA62DA6A25
:1052700022F40072A9690A43DA62DA6A22F48072BF
:10528000DA625A6C6FF3CF02E96942EAC1025A64EA
:10529000DA6A42F48072DA62C6B91A46DB6A43F40B
:1052A0008003D362124A136843F080531360FDF702
:1052B00061FE04460E4B1B6813F0005F14D1FDF72E
:1052C00059FE001B0228F5D90320ABE7012E05D0BB
:1052D000074AD36A43F08073D362E3E7044AD36A90
:1052E00043F40003D362DDE700209BE70120704711
:1052F00000440258F8B50446036813F0006F30D03C
:10530000436EB3F5001F26D00ED8ABB1B3F5801FA6
:1053100007D102210830FFF7E5FE054695B12E467C
:1053200021E0012635461EE0B3F5401F01D10025DE
:1053300008E00126354616E09B4AD36A43F4003361
:10534000D3620025984A136D23F44013616E0B431A
:105350001365002607E002212830FFF747FF0546C6
:10536000DCE700263546236813F4807F14D0A36D54
:10537000042B34D8DFE803F003252C0808008A4A00
:10538000D36A43F40033D36265BB874A136D23F0BD
:105390000703A16D0B431365236813F4806F47D097
:1053A000D4F8A430B3F5800F33D020D85BB3B3F575
:1053B000001F19D1002104F10800FFF793FE0546F4
:1053C0002DE0002104F10800FFF78CFE0546DBE725
:1053D000002104F12800FFF709FF0546D4E7012664
:1053E0003546D9E72E46D7E70126354620E0B3F506
:1053F000000F14D0B3F5200F11D0B3F5C00F0ED0AD
:105400000126354614E0684AD36A43F40033D36278
:1054100005E0002104F12800FFF7E8FE0546E5B9A4
:10542000614A936D23F46003D4F8A4100B43936591
:10543000236813F4006F36D0D4F8A830B3F1007F9E
:1054400022D00FD8D3B1B3F1807F08D1002104F16D
:105450000800FFF747FE05461CE02E46E8E7012658
:10546000354620E0B3F1806F14D0B3F1A06F11D0B6
:10547000B3F1407F0ED00126354614E04A4AD36A84
:1054800043F40033D36205E0002104F12800FFF764
:10549000ADFE0546C5B9444A936D23F0E063D4F8E8
:1054A000A8100B439365236813F0007F24D0E36CAE
:1054B000202B13D00DD8BBB1102B07D13A4AD36A99
:1054C00043F40033D3620FE02E46ECE70126354665
:1054D00012E0302B08D0012635460DE0022104F100
:1054E0000800FFF7FFFD0546D5B92F4AD36C23F01E
:1054F0003003E16C0B43D364236813F4805F31D035
:10550000E36DB3F5005F1FD00FD8BBB1B3F5805F7B
:1055100008D1002104F10800FFF7E4FD054619E079
:105520002E46E9E7012635461CE0B3F5405F11D071
:10553000B3F5804F0ED00126354613E01A4AD36AE0
:1055400043F40033D36205E0002104F12800FFF7A3
:105550004DFE054615BB144A136D23F4E043E16D7F
:105560000B431365236813F4005F33D0236EB3F548
:10557000003F27D01AD843B1B3F5803F10D10121A5
:1055800004F10800FFF7AEFD054615BB064A136D92
:1055900023F4E023216E0B4313651BE02E46E1E765
:1055A0000126354616E000BF00440258B3F5802FAF
:1055B000EBD0B3F5A02FE8D0B3F5403FE5D00126FE
:1055C000354607E0012104F12800FFF70FFE0546EC
:1055D000DBE72E46236813F4804F30D0D4F8AC308C
:1055E000B3F1005F23D016D843B1B3F1805F0FD180
:1055F000012104F10800FFF775FD0546F5B98B4A56
:10560000936D23F0E043D4F8AC100B43936516E0A0
:105610000126354613E0B3F1804FEFD0B3F1A04F30
:10562000ECD0B3F1405FE9D00126354607E0012117
:1056300004F12800FFF7DAFD0546DFE72E46236870
:1056400013F4004F20D0E36EB3F1805F06D0B3F1C6
:10565000005F11D03BB10126354615E0734AD36A8D
:1056600043F40033D36275B9704A136D23F040538D
:10567000E16E0B43136507E0012104F10800FFF719
:1056800031FD0546EFE72E46236813F0807F13D0E7
:10569000A36C032B3BD8DFE803F007023307634A10
:1056A000D36A43F40033D362A5BB604AD36C23F0C2
:1056B0000303A16C0B43D364236813F4800F2BD135
:1056C000236813F0010F00F0A380A36F282B00F2D2
:1056D0009D80DFE803F08B9B9B9B9B9B9B9B859B0B
:1056E0009B9B9B9B9B9B949B9B9B9B9B9B9B8B9B21
:1056F0009B9B9B9B9B9B8B9B9B9B9B9B9B9B8B00B5
:10570000022104F10800FFF7EDFC0546CCE7012675
:105710003546D1E72E46CFE7454A136843F48073F8
:105720001360FDF727FC0746414B1B6813F4807F8D
:1057300005D1FDF71FFCC01B6428F5D90325002DFA
:105740004AD13A4B1B6FD4F8B020534013F4407F3A
:105750000CD0364B1A6F22F44072196F41F480312D
:105760001967196F21F4803119671A67D4F8B030BE
:10577000B3F5807F15D08DBBD4F8B03003F4407200
:10578000B2F5407F1ED0294A136923F47C5313617C
:1057900026490B6FD4F8B020C2F30B0213430B67FA
:1057A0008EE7FDF7E7FB0746204B1B6F13F0020F58
:1057B000E1D1FDF7DFFBC01B41F288339842F3D9FA
:1057C0000325D8E71948026922F47C52194901EAF5
:1057D000131313430361DBE72E4671E72E466FE791
:1057E000012104F10800FFF77DFC0546E5B90F4AE9
:1057F000536D23F03803A16F0B43536508E001217B
:1058000004F12800FFF7F2FC0546EFE701263546D4
:10581000236813F0020F1DD0636F052B32D8DFE829
:1058200003F0110B2A1111112E46F1E70044025822
:1058300000480258CFFFFF00012104F10800FFF7E4
:1058400051FC05460DBBB74A536D23F00703616F4A
:105850000B435365236813F0040F29D0D4F890301C
:10586000052B00F20881DFE813F018001200FF009A
:10587000180018001800012104F12800FFF7B6FCF9
:105880000546DFE701263546E4E72E46E2E701213B
:1058900004F10800FFF726FC0546002D40F0EE80DD
:1058A000A04A936D23F00703D4F890100B4393653F
:1058B000236813F0200F1DD0D4F88C30B3F1005FB3
:1058C00000F0F08000F2DF804BB1B3F1805F40F078
:1058D000D780002104F10800FFF704FC0546002DE5
:1058E00040F0E7808F4A536D23F0E043D4F88C10EA
:1058F0000B435365236813F0400F1DD0D4F8983044
:10590000B3F5006F00F0E98000F2D8804BB1B3F539
:10591000806F40F0D080002104F10800FFF7E2FB27
:105920000546002D40F0E0807E4A936D23F4E0535D
:10593000D4F898100B439365236813F0800F1DD0A3
:10594000D4F89C30B3F5804F00F0E28000F2D180B3
:105950004BB1B3F5005F40F0C980002104F10800AD
:10596000FFF7C0FB0546002D40F0D9806D4A936DCE
:1059700023F46043D4F89C100B439365236813F021
:10598000080F0DD0D4F88030B3F5805F00F0CC80E4
:10599000644A536D23F44053D4F880100B4353658D
:1059A000236813F0100F0DD0D4F89430B3F5807F36
:1059B00000F0C4805B4A936D23F44073D4F89410D4
:1059C0000B439365236813F4002F1CD0D4F8A03048
:1059D000B3F5803F00F0BC80B3F5003F08D0002B4A
:1059E00040F0BD80002104F10800FFF77BFB054675
:1059F000002D40F0B7804B4A936D23F44033D4F828
:105A0000A0100B439365236813F4802F1CD0D4F8A7
:105A10008430B3F5001F00F0A780B3F5401F08D015
:105A2000B3F5801F40F0A7803E4AD36A43F40033A9
:105A3000D362002D40F0A2803A4A536D23F4401304
:105A4000D4F884100B435365236813F4803F00F0AF
:105A5000AD80236D002B00F09380B3F5803F00F004
:105A60009D8001263546A1E0012104F12800FFF7C1
:105A7000BDFB054611E70126354619E72E4617E717
:105A80000126354636E7B3F1804F3FF428AFB3F136
:105A9000A04F3FF424AFB3F1405F3FF420AF0126A5
:105AA000354627E7022104F12800FFF79FFB054652
:105AB00015E72E461EE7012635463DE7B3F5805F24
:105AC0003FF42FAFB3F5A05F3FF42BAFB3F5406FBA
:105AD0003FF427AF012635462EE7022104F12800C6
:105AE000FFF784FB05461CE72E4625E701263546D1
:105AF00044E7B3F5004F3FF436AFB3F5204F3FF422
:105B000032AFB3F5C04F3FF42EAF0126354635E72F
