:020000040800F2
:1000000000000220B50C0008310C0008330C000879
:10001000350C0008370C0008390C000800000000FF
:100020000000000000000000000000003B0C000881
:100030003D0C0008000000003F0C0008410C0008C7
:10004000050D0008050D0008050D0008050D000848
:10005000050D0008050D0008050D0008050D000838
:10006000050D0008050D0008050D0008050D000828
:10007000050D0008050D0008050D0008050D000818
:10008000050D0008050D0008050D0008050D000808
:10009000050D0008490C0008590C0008050D000862
:1000A000050D0008050D0008050D0008050D0008E8
:1000B000050D0008050D0008050D0008050D0008D8
:1000C000050D0008050D0008050D0008050D0008C8
:1000D000050D0008050D0008050D0008050D0008B8
:1000E000050D0008050D0008050D0008050D0008A8
:1000F000050D0008050D0008050D0008050D000898
:10010000050D0008050D0008050D0008050D000887
:10011000050D0008050D0008050D0008050D000877
:10012000050D0008050D0008050D0008050D000867
:10013000050D0008050D0008050D0008050D000857
:10014000050D0008050D0008050D00080000000061
:10015000000000000000000000000000000000009F
:10016000000000000000000000000000050D000875
:10017000050D0008050D0008050D0008050D000817
:10018000050D0008050D0008050D0008050D000807
:10019000050D000800000000050D0008050D000811
:1001A000050D0008050D0008050D0008050D0008E7
:1001B000050D0008050D0008050D0008050D0008D7
:1001C000050D0008050D0008050D0008050D0008C7
:0801D000050D0008050D0008F3
:1002000080F0004002E000BF81F0004142001FBFCB
:100210005FEA410392EA030F7FEA226C7FEA236CD4
:100220006AD04FEA1262D2EB1363C1BFD2184140C9
:1002300048404140B8BF5B42192B88BF704710F05F
:10024000004F40F4000020F07F4018BF404211F002
:10025000004F41F4000121F07F4118BF494292EA6A
:10026000030F3FD0A2F1010241FA03FC10EB0C0096
:10027000C3F1200301FA03F100F0004302D5494223
:1002800060EB4000B0F5000F13D3B0F1807F06D3D0
:1002900040084FEA310102F10102FE2A51D2B1F1C8
:1002A000004F40EBC25008BF20F0010040EA0300BD
:1002B0007047490040EB0000013A28BFB0F5000F3D
:1002C000EDD2B0FA80FCACF1080CB2EB0C0200FAF3
:1002D0000CF0AABF00EBC25052421843BCBFD04042
:1002E0001843704792F0000F81F4000106BF80F4BC
:1002F00000000132013BB5E74FEA41037FEA226C7F
:1003000018BF7FEA236C21D092EA030F04D092F049
:10031000000F08BF0846704790EA010F1CBF00207D
:10032000704712F07F4F04D1400028BF40F00040DA
:10033000704712F100723CBF00F50000704700F0FA
:10034000004343F0FE4040F4000070477FEA226221
:1003500016BF08467FEA23630146420206BF5FEAF2
:10036000412390EA010F40F4800070474FF00003F2
:1003700004E000BF10F0004348BF40425FEA000CB9
:1003800008BF704743F0964301464FF000001CE061
:1003900050EA010208BF70474FF000030AE000BFB7
:1003A00050EA010208BF704711F0004302D54042F5
:1003B00061EB41015FEA010C02BF84460146002067
:1003C00043F0B64308BFA3F18053A3F50003BCFA82
:1003D0008CF2083AA3EBC25310DB01FA02FC63442F
:1003E00000FA02FCC2F12002BCF1004F20FA02F236
:1003F00043EB020008BF20F00100704702F1200229
:1004000001FA02FCC2F1200250EA4C0021FA02F289
:1004100043EB020008BF20EADC7070474FF0FF0C8E
:100420001CEAD0521EBF1CEAD15392EA0C0F93EA89
:100430000C0F6FD01A4480EA010C400218BF5FEA2B
:1004400041211ED04FF0006343EA501043EA51119E
:10045000A0FB01310CF00040B1F5000F3EBF490098
:1004600041EAD3715B0040EA010062F17F02FD2A9C
:100470001DD8B3F1004F40EBC25008BF20F001007F
:10048000704790F0000F0CF0004C08BF49024CEA96
:10049000502040EA51207F3AC2BFD2F1FF0340EA28
:1004A000C250704740F400004FF00003013A5DDC99
:1004B00012F1190FDCBF00F000407047C2F10002DA
:1004C000410021FA02F1C2F1200200FA02FC5FEAC7
:1004D000310040F1000053EA4C0308BF20EADC7011
:1004E000704792F0000F00F0004C02BF400010F483
:1004F000000F013AF9D040EA0C0093F0000F01F030
:10050000004C02BF490011F4000F013BF9D041EA51
:100510000C018FE70CEAD15392EA0C0F18BF93EA53
:100520000C0F0AD030F0004C18BF31F0004CD8D17D
:1005300080EA010000F00040704790F0000F17BF04
:1005400090F0004F084691F0000F91F0004F14D04A
:1005500092EA0C0F01D142020FD193EA0C0F03D1A2
:100560004B0218BF084608D180EA010000F00040A5
:1005700040F0FE4040F40000704740F0FE4040F480
:10058000400070474FF0FF0C1CEAD0521EBF1CEA1F
:10059000D15392EA0C0F93EA0C0F69D0A2EB03023D
:1005A00080EA010C49024FEA402037D04FF08053D7
:1005B00043EA111143EA10130CF000408B4238BF9C
:1005C0005B0042F17D024FF4000C8B4224BF5B1AAA
:1005D00040EA0C00B3EB510F24BFA3EB510340EAF8
:1005E0005C00B3EB910F24BFA3EB910340EA9C00A6
:1005F000B3EBD10F24BFA3EBD10340EADC001B0116
:1006000018BF5FEA1C1CE0D1FD2A3FF650AF8B42B9
:1006100040EBC25008BF20F0010070470CF0004CC6
:100620004CEA50207F32C2BFD2F1FF0340EAC250F1
:10063000704740F400004FF00003013A37E792F0B2
:10064000000F00F0004C02BF400010F4000F013A10
:10065000F9D040EA0C0093F0000F01F0004C02BF0B
:10066000490011F4000F013BF9D041EA0C0195E774
:100670000CEAD15392EA0C0F08D142027FF47DAF0D
:1006800093EA0C0F7FF470AF084676E793EA0C0FFD
:1006900004D14B023FF44CAF08466EE730F0004CFB
:1006A00018BF31F0004CCAD130F000427FF45CAF8B
:1006B00031F000437FF43CAF5FE700BF4FEA4002F8
:1006C000B2F1FE4F0FD34FF09E03B3EB12620DD980
:1006D0004FEA002343F0004310F0004F23FA02F0EA
:1006E00018BF404270474FF00000704712F1610F91
:1006F00001D1420205D110F0004008BF6FF0004068
:1007000070474FF000007047844641EA000313F041
:1007100003036DD1403A41D351F8043B40F8043B08
:1007200051F8043B40F8043B51F8043B40F8043BCB
:1007300051F8043B40F8043B51F8043B40F8043BBB
:1007400051F8043B40F8043B51F8043B40F8043BAB
:1007500051F8043B40F8043B51F8043B40F8043B9B
:1007600051F8043B40F8043B51F8043B40F8043B8B
:1007700051F8043B40F8043B51F8043B40F8043B7B
:1007800051F8043B40F8043B51F8043B40F8043B6B
:1007900051F8043B40F8043B403ABDD2303211D30B
:1007A00051F8043B40F8043B51F8043B40F8043B4B
:1007B00051F8043B40F8043B51F8043B40F8043B3B
:1007C000103AEDD20C3205D351F8043B40F8043B0B
:1007D000043AF9D2043208D0D2071CBF11F8013B09
:1007E00000F8013B01D30B8803806046704700BFCF
:1007F000082A13D38B078DD010F003038AD0C3F1DE
:100800000403D21ADB071CBF11F8013B00F8013BBF
:1008100080D331F8023B20F8023B7BE7043AD9D37E
:10082000013A11F8013B00F8013BF9D20B78037053
:100830004B7843708B7883706046704700000000EF
:1008400030B490F800F020F007016FF0000C10F0C9
:10085000070491F820F040F048804FF000046FF05A
:100860000700D1E9002391F840F000F1080082FA76
:100870004CF2A4FA8CF283FA4CF3A2FA8CF34BBB41
:10088000D1E9022382FA4CF200F10800A4FA8CF2BA
:1008900083FA4CF3A2FA8CF3E3B9D1E9042382FA88
:1008A0004CF200F10800A4FA8CF283FA4CF3A2FA9D
:1008B0008CF37BB9D1E9062301F1200182FA4CF2D5
:1008C00000F10800A4FA8CF283FA4CF3A2FA8CF33C
:1008D000002BC6D0002A04BF04301A4612BAB2FA5E
:1008E00082F200EBD20030BC7047D1E9002304F063
:1008F0000305C4F100004FEAC50514F0040F91F898
:1009000040F00CFA05F562EA05021CBF63EA050334
:1009100062464FF00004AAE70348044B834202D02A
:10092000034B03B1184770475C0900205C090020A5
:10093000000000000548064B1B1AD90F01EBA3016C
:10094000491002D0034B03B1184770475C090020DF
:100950005C0900200000000010B5064C237843B964
:10096000FFF7DAFF044B13B10448AFF30080012313
:10097000237010BD5C09002000000000E86700083B
:1009800008B5054B1BB105490548AFF30080BDE82C
:100990000840FFF7CFBF00BF000000006009002043
:1009A000E867000808B51148114B03600023436055
:1009B0008360C36001220274437483741021416117
:1009C000082181610D21C1610221016242628262BE
:1009D000C26202631C2242638363C36300F0DCFDD6
:1009E00000B908BD00F0CAF8FBE700BFE00900202D
:1009F0000064004008B51048104B036000234360BA
:100A00008360C360012202744374837408214161CE
:100A100082610D21C1610221016242628262C26271
:100A200002631C2242638363C36300F0B5FD00B917
:100A300008BD00F0A3F8FBE77C0900200068004037
:100A400010B59EB00446002119911A911B911C917A
:100A50001D91542204A805F06FFC2368424A93427A
:100A600004D0424A934249D01EB010BD4FF4805387
:100A700004934FF00073129304A802F0E1F878BBDE
:100A80003B4A136801331360012B2CD0394BDA6CCD
:100A900042F00102DA64DB6C03F001030193019B75
:100AA0004FF4C053199302231A9300241B941C94EF
:100AB00009231D9319A94FF0904001F001FB224634
:100AC0002146152000F0B4FC152000F0C1FC2246A0
:100AD0002146162000F0ACFC162000F0B9FCC3E75C
:100AE00000F04CF8CCE7234B9A6D42F000729A6507
:100AF0009B6D03F000730093009BC7E74FF4805396
:100B000004934FF00073129304A802F099F8E8B927
:100B1000174A136801331360012B1AD0154BDA6C96
:100B200042F00202DA64DB6C03F002030393039BDE
:100B30006023199302231A9300231B931C93092308
:100B40001D9319A90C4801F0BBFA8DE700F016F8C7
:100B5000DEE7084B9A6D42F000729A659B6D03F0D8
:100B600000730293029BD9E70064004000680040D4
:100B700078090020001002400004004872B6FEE729
:100B800030B595B006AD38220021284605F0D4FBDB
:100B90000024019402940394049405944FF400708B
:100BA00001F07CFB022306934FF4807309934023EA
:100BB0000A930D94284601F091FC68B90F23019324
:100BC00001230293002103910491059101A801F0F2
:100BD0003BFF18B915B030BDFFF7D0FFFFF7CEFFD0
:100BE00008B500F09DFBFFF7CBFFFFF7DBFEFFF73B
:100BF00001FF00F075FA000000B583B00B4B1A6ED0
:100C000042F001021A661A6E02F001020092009A86
:100C10009A6D42F080529A659B6D03F08053019368
:100C2000019B01F0C1FB03B05DF804FB0010024022
:100C3000FEE7FEE7FEE7FEE7FEE770477047704716
:100C400008B500F07DFB08BD08B5024800F09CFF28
:100C500008BD00BFE009002008B5024800F094FF7D
:100C600008BD00BFE009002010B503460C4A0D493D
:100C70000D48006840B10C4800680344521A934282
:100C800006D8094A136010BD0748084C0460F2E713
:100C900005F0B2FB0C2303604FF0FF30F3E700BF19
:100CA0000000022000040000440A0020E02200208E
:100CB000704700000D488546FFF7FAFF0C480D49C4
:100CC0000D4A002302E0D458C4500433C4188C42A7
:100CD000F9D30A4A0A4C002301E013600432A2420D
:100CE000FBD305F08FFBFFF77BFFFEE70000022040
:100CF000000000205C090020FC6D00085C09002059
:100D0000DC220020FEE7704710B5184B1C68236BEF
:100D1000D3F8802022B19A8E46F203039A4200D083
:100D200010BD134B01221A7000220AE011490B6812
:100D3000104490F85CC0104800F803C001330B6009
:100D40000132206BD0F880309342EFD8212200216D
:100D50005C3005F0F1FA226BD2F8800007490B688D
:100D600003440B600023C2F88030D9E77C120020D6
:100D700078120020480A00204C0A0020841200202B
:100D800010B500240BE000F0E7FA0D4B04EB440231
:100D900003EB8201886053F8223098470134012C1C
:100DA0000CDC00F0D9FA04EB4402054B03EB8203A0
:100DB0009A685B6813449842F0D3E4E710BD00BF23
:100DC000BC03002010B53B4800F0AAF9982004F0BD
:100DD0004FFF014601230370037204224272037421
:100DE00080F8202080F82830002480F8304080F8F7
:100DF000383080F840300223A0F854300723A0F8A0
:100E0000603080F86C4080F86D4080F8744080F865
:100E1000904080F8914080F89240A0F89440264B92
:100E20001A6853680C334361536824334362536830
:100E30003033436453683C33836453684833C3643A
:100E400053689033C3635368A83383615368B433E2
:100E5000C3615368C033C3605368CC334360536885
:100E6000E43303655368FC33C362536803F58A7344
:100E70008365536803F59673C365536803F5A273DE
:100E80004366536803F5CC73836653687833C0F8C0
:100E9000883053688433C0F88C300323074804F04B
:100EA000A7FD074B1860074A2146006B03F0AFFB14
:100EB00010BD00BF6C12002000000020E0090020DF
:100EC0007C120020090D000808B572B600F0EAF99E
:100ED0004FF0E02300241C615C619C6101F098FAF2
:100EE00023460BE00C4A03F120004FF0FF3142F89B
:100EF000201003F1600042F820100133072BF1D9D4
:100F000062B6064B1A6882F30888BFF34F8F5B689E
:100F1000984700BFFDE700BF00E100E000A0000827
:100F200070B51D4B1C688CB3B4F5006F01D94FF43C
:100F300000642346002C1FDB184E194DDB1032468F
:100F40002968184800F090F922460021304605F043
:100F5000F3F92B6823442B600F4B1A68A2F5006449
:100F6000002C14DD0023A34208DA03F500600B49CE
:100F7000085CC8540133F6E7E31DDDE7A2F6010281
:100F80000021094805F0D8F9034B1C6070BD024BE5
:100F900000221A60FAE700BF480A00204C0A00202D
:100FA000D40300206C1200204C120020024B186861
:100FB000013018BF0120704700A00008C04302F1B3
:100FC000FF3CDAB110B411F8013B83EA000202F0F1
:100FD0000F020B4C54F8222082EA101080EA1313FF
:100FE00003F00F0354F8233083EA101062460CF12B
:100FF000FF3C002AE7D1C04310BC7047C043704794
:10100000306D000810B5094BD3F888415CB1D3F8B6
:101010008C2107490020FFF7D1FF844201D0002036
:1010200002E0012000E0002010BD00BF28020020E7
:1010300000A0000810B5244B1C6800F08DF9014693
:10104000204604F02BFD214A136801331360B3F5E9
:101050007A6F08D9134600221A601D4B1B7813B90A
:10106000FFF7A4FF78B91B4B1B68B3F5006F0CD2D8
:10107000154B1B681B6B1A6D22B19A8E46F2030347
:101080009A4205D010BDFFF71FFFFFF749FFEFE7BA
:10109000FFF746FFFFF78AFF10B1FFF7B3FF88B9EC
:1010A00000F072FE4FF420620B490C4800F084F807
:1010B00000F052FE0023064A1370034A1268126BB6
:1010C0001365DFE7FFF700FF7C120020801200208D
:1010D00078120020480A002000A000086C120020AE
:1010E00008B5FFF76FFEFFF74BFEFCE730B586460D
:1010F000002300E02B469EF8050098420EDDDEF846
:1011000008405D1C03FB044C94448C45F2D91846FE
:1011100003FB04248C4202D92B46ECE7002030BDAF
:10112000224B1B6A13F4800F1FD002230371204B44
:10113000B3F8E0204FF6FF739A420CD01D4BB3F882
:10114000E035B3F5007F0ED0B3F5807F01D02023CA
:1011500002E0402300E0802343714FF4006383608A
:101160004023837170478023F6E701230371104BFE
:10117000B3F8E0204FF6FF739A420CD00D4BB3F852
:10118000E035B3F5007F0ED0B3F5807F01D020238A
:1011900002E0402300E0802343714FF480538360DA
:1011A0008023837170478023F6E700BF0020024050
:1011B0000075FF1F0070FF1F2DE9F04182B004464B
:1011C0000E4690460379022B29D04FF0006500F0BF
:1011D000C3FD2A4631462046FFF788FF0746A1791E
:1011E000C9082A4601FB08612046FFF77FFF034636
:1011F000184A00211160B5F1006F26D0022215486F
:1012000042608760DB1B0133C36001A900F0DEFE92
:10121000E8B900F0B9FD002002B0BDE8F0810E4B46
:10122000B3F8E0204FF6FF739A420CD00B4BD3F883
:10123000E0350B4D05EA432505F10065B542C6D9F9
:101240004FF00065C3E7074DF8E70122D7E700F04C
:10125000A9FDE1E7881200200075FF1F0070FF1F45
:1012600000FEFF0100000408F8B50D4617461E46B3
:1012700000F072FD002401E008350134B4420CD2C4
:1012800007EBC401D1E900232946002000F0C0FD8E
:101290000028F1D000F086FD02E000F075FD00208E
:1012A000F8BD704710B5094B4FF0FF329A63002428
:1012B0009C631A641C649A629C62DA62DC621A6340
:1012C0001C63FFF7EEFF204610BD00BF0010024078
:1012D000104B1B680BB90120704710B504464FF442
:1012E0007A70B0FBF3F30C4A1068B0FBF3F000F037
:1012F000B7F868B90F2C01D901200AE00022214675
:101300004FF0FF3000F094F8044B1C60002000E028
:10131000012010BDD8030020B8030020DC0300200A
:1013200010B5032000F072F80F20FFF7D1FF10B1C5
:101330000124204610BD0446FFF75EFCF9E70000DB
:10134000034A1368034909680B441360704700BFE0
:1013500098120020D8030020014B1868704700BF86
:1013600098120020002807DB00F01F02400901232B
:101370009340024A42F82030704700BF00E100E08D
:10138000002808DB0901C9B200F1604000F56140A6
:1013900080F80013704700F00F000901C9B2014B3B
:1013A0001954704714ED00E000B500F00700C0F1DB
:1013B000070CBCF1040F28BF4FF0040C031D062BD3
:1013C0000FD9C31E4FF0FF3E0EFA0CF021EA0001C8
:1013D00099400EFA03FE22EA0E0241EA02005DF88D
:1013E00004FB0023EEE70000BFF34F8F0549CA68F6
:1013F00002F4E062044B1343CB60BFF34F8F00BF96
:10140000FDE700BF00ED00E00400FA05074AD368DD
:1014100023F4E0631B041B0C000200F4E0600343B0
:1014200043F0BF6343F40033D360704700ED00E046
:1014300010B50446054BD868C0F30220FFF7B4FF8F
:1014400001462046FFF79CFF10BD00BF00ED00E005
:1014500008B5FFF787FF08BD08B5FFF7C5FF000017
:101460000138B0F1807F0BD24FF0E0235861054A7C
:10147000F02182F823100020986107221A6170473A
:101480000120704700ED00E002681D4B9A422AD00F
:101490001C491D4B9A4228D00164D2F8803023F4B5
:1014A000F813D0F834C043EA0C43C2F8803001F19D
:1014B000700343640268D2F8803023F07063D0F880
:1014C00038C043EA0C63C2F8803001F1B003836492
:1014D00001F5C473C36401F51873036501F51E7348
:1014E00043650B4607E00949D3E701F5D461D3E72B
:1014F000002243F8042B01F554729A42F8D8704741
:101500000068004000A40040006C004050A700406C
:1015100070B54C68ECB90D698C6825430C6845EAD8
:101520008445CC690E6A44EA06648E6934434E6988
:101530003443CE6844EA0644406D03EBC30300EB3A
:10154000C30E40F83350CEF804400EF1080E0020D0
:1015500019E00C698D6825430C68254345F08045EA
:10156000DFE702EB000C9CF803409CF802301B0400
:1015700043EA04639CF8014043EA0423145C2343D8
:101580004EF8043B0430CB68024CE35C8342E8D85D
:1015900070BD00BF706D0008002800F0E38038B512
:1015A000044690F85C30D3B12268936923F01003AD
:1015B0009361FFF7D1FE054623689A6912F0080F80
:1015C00012D0FFF7C9FE401B0A28F5D9236E43F05D
:1015D00001032366032384F85C30012038BD80F8C2
:1015E0005D30FFF72DFADFE79A6942F001029A6158
:1015F000FFF7B2FE054623689A6912F0010F0DD17C
:10160000FFF7AAFE401B0A28F5D9236E43F0010319
:101610002366032384F85C300120DFE79A6942F0F7
:1016200002029A612268504B9A4242D0237C012BDD
:1016300045D02268936943F040039361637C012B9A
:1016400043D02268936923F480439361A37C012BE8
:1016500041D02268936943F480539361226893696F
:1016600023F44073A1680B4393612268936923F0CC
:10167000A40393612268136923F010031361E368E4
:10168000012B2ED0002B31D0022B54D0226893692D
:1016900043F0800393612268136943F010031361E0
:1016A000E368032B22D12268936943F020039361FE
:1016B0001CE06268A3F58063C3F80025B6E72268E2
:1016C000936923F040039361B8E72268936943F478
:1016D00080439361BAE72268936923F4805393614E
:1016E000BCE72268936943F004039361A3695A1E1F
:1016F000E369013B1B0243EA4263226A013A134356
:101700006269013A216843EA0243CB61A368B3F5F9
:10171000407F16D02268D2F8C030E16B0B43C2F88C
:10172000C0302046FFF7B0FE0020A06520660123F0
:1017300084F85C3052E72268936943F02003936198
:10174000D4E7A36A013BE26A013A43EA0223226B2F
:10175000013A43EA0213626A013A216843EA02430A
:10176000CB60D7E7012070470064004090F85C3000
:10177000013BDBB2012B05D9036E43F00203036684
:10178000012070470B687BB98A68CB68DB0643EAA7
:1017900082730A6943EA02434A691343026C496847
:1017A00042F8213000207047CA680B6943EA427250
:1017B0004B69D1F808C043EA8C73406C496800EB70
:1017C000C10C40F83120CCF80430EBE790F85CC055
:1017D000BCF1010F05D0036E43F004030366012042
:1017E000704710B40468D4F8800020F03F009200E5
:1017F00042EA011242EA4303019A1A430243C4F83F
:101800008020002010BC704790F85C30012B05D080
:10181000036E43F00403036601207047022380F83F
:101820005C300268936923F001039361002303662F
:101830001846704790F85C30022B39D102689369E2
:1018400043F00103936100230268916911F0010FD5
:101850000CD10A2B01D80133F6E7036E43F00103E4
:101860000366032380F85C3001207047936923F0FE
:101870001003936100230268916911F0080F0CD0E6
:101880000A2B01D80133F6E7036E43F00103036628
:10189000032380F85C3001207047936943F0020312
:1018A000936100238365012280F85C20184670470D
:1018B000036E43F0080303660120704738B5044601
:1018C00090F85C30022B1BD10368D3F8C40010F4ED
:1018D000001F05D0236E43F400732366012014E03B
:1018E000D3F8C450C5F301452B462046FFF710FE40
:1018F00022680123AB40C2F8CC30A365002004E08D
:10190000036E43F008030366012038BD70B590F8FC
:101910005C40022C40F0958040290BD00468D4F83C
:10192000985015F00F0F27D1036E43F480730366B0
:1019300001208BE00468D4F8905015F00F0F05D10A
:10194000036E43F48073036601207FE0D4F8906057
:1019500016F0807605D0D4F8806016F4007600D0BA
:101960000126D4F89040C4F301242644846C06EB8D
:10197000C60504EBC50E14E0D4F8986016F0807626
:1019800005D0D4F8806016F4807600D00126D4F813
:101990009840C4F301242644C46C06EBC60504EB4E
:1019A000C50EDEF8004004F08044546064BBDEF8ED
:1019B0000040C4F38A441460DEF8004004F0005490
:1019C0009460DEF8004004F000441461BEF8044066
:1019D000D461BEF8064004F00F04D460DEF8044081
:1019E00004F480145461DEF8044004F4001494619B
:1019F0009EF8074004F07F041462DEF80440E40F10
:101A000054624FF0000C0CE0DEF8004024F060441B
:101A10001460D1E70EEB0C04247A03F80C400CF1AF
:101A2000010CD4680A4D2C5D6445F3D8402904D0DC
:101A30000368C3F89C60002008E00368C3F8946062
:101A4000F9E7036E43F008030366012070BD00BF91
:101A5000706D000803681B6CDAB20A60C3F30622DB
:101A60004A60C3F3C0328A60C3F30743CB600020EF
:101A7000704790F85C30013BDBB2012B05D9036E57
:101A800043F0020303660120704770B40468A36D3D
:101A900011F0070602D013F0010F23D011F0380F18
:101AA00002D013F0020F1DD011F4E07F02D013F02A
:101AB000040F17D011F4F05F02D013F0080F11D00B
:101AC00011F4604F02D013F0100F0BD011F4403F0F
:101AD00002D013F0200F05D011F47C0F06D013F0C4
:101AE000400F03D1E56D45F00105E56516B113F032
:101AF000010F23D111F0380F02D013F0020F1DD1C6
:101B000011F4E07F02D013F0040F17D111F4F05F4D
:101B100002D013F0080F11D111F4604F02D013F06E
:101B2000100F0BD111F4403F02D013F0200F05D15C
:101B300011F47C0F07D013F0400F04D00468E36D5C
:101B400043F00203E36511F0800F05D00468D4F878
:101B5000DC301343C4F8DC3011F4807F05D0046816
:101B6000D4F8E0301343C4F8E0300268536D0B43FF
:101B70005365002070BC70477047704770477047CE
:101B800070477047704770472DE9F84F0446036867
:101B90001A6D02F4E05A5A6D0AEA020A1A6D02F04E
:101BA00007095A6D09EA02091A6D02F038085A6DE0
:101BB00008EA02081E6D06F471065A6D16401F6D84
:101BC00007F460275A6D1740D3F854B01D6D15F017
:101BD000400F02D01BF0400F41D115F4807F02D09E
:101BE0001BF4807F40D1BAF1000F4AD1B9F1000F48
:101BF0004FD1B8F1000F54D115F4007F02D01BF47F
:101C0000007F56D115F0800F02D01BF0800F58D105
:101C100015F4005F02D01BF4005F5ED115F4004F95
:101C200002D01BF4004F60D115F4804F0AD01BF492
:101C3000804F07D023684FF480421A65236E43F02B
:101C400080032366002F58D126B123681E65236EBA
:101C500033432366236E002B56D1BDE8F88F402214
:101C60001A65FFF78EFFB8E72368D3F8D810D3F8CA
:101C7000E0204FF48070186511402046FFF77EFF8A
:101C8000B1E72368C3F850A051462046FFF774FF20
:101C9000ACE72368C3F850904946204603F076FD30
:101CA000A7E72368C3F850804146204603F078FD3B
:101CB000A2E723684FF400721A652046FFF75DFF24
:101CC000A0E72368D3F8D410D3F8DC20802018656F
:101CD0001140204603F010FE9AE723684FF40052AB
:101CE0001A652046FFF74BFF98E723684FF4004240
:101CF0001A652046FFF744FF96E723681F653946BB
:101D00002046FFF740FF9FE72046FFF73BFFA4E791
:101D100010B4054C616941F0010161610260BFF3DB
:101D20006F8F436010BC704700200240094A53691E
:101D300043F480235361EFF3108C72B6402351F8C3
:101D4000042B40F8042B013B13F0FF03F7D18CF375
:101D50001088704700200240094B5B69002B01DBB3
:101D600000207047064B074A9A6002F188329A6059
:101D70005B69002B01DB002070470120704700BF2A
:101D80000020024023016745054B5A6942F000429A
:101D90005A615B69002B01DB01207047002070470E
:101DA00000200240014B5868704700BFE00300204C
:101DB00038B50546FFF7D0FA0446134B1B6913F4F8
:101DC000803F06D0FFF7C8FA001BA842F5D90320D0
:101DD00038BD0D4B1B694CF2FA32134009D10A4B46
:101DE0001B6913F0010F0CD0074B01221A61002070
:101DF000EEE706494A681A434A60034A1361012024
:101E0000E6E70020E4E700BF00200240E0030020F6
:101E10002DE9F0411646284A1278012A49D0044695
:101E20000D469846244B01221A704FF47A70FFF742
:101E3000BFFF074608BB204B00225A601F4B1B68A0
:101E400013F4806F1FD01D4A136823F4806313605E
:101E5000194B02221A77D4B1631E012B1ED900241C
:101E60004FF47A70FFF7A4FF074624B1134A536971
:101E700023EA0403536100F077F80F4B00221A7035
:101E80003846BDE8F0810C4B00221A77E3E7324672
:101E900043462846FFF73CFF0124E1E73146284648
:101EA000FFF744FF022C01D00024D9E74FF480242F
:101EB000D6E70227E4E700BFE0030020002002404D
:101EC000114B1B6A13F4800F10D010F0010F04D0D7
:101ED0000D4A536943F00403536110F0020F0CD014
:101EE000094A536943F40043536106E0064A5369C3
:101EF00043F4004343F004035361034A536943F43A
:101F000080335361704700BF00200240154B1B6AAD
:101F100013F4800F16D1134A536923F400635361FD
:101F2000104B5A6922F47E72C00000F4FF60024335
:101F30005A615A6942F002025A615A6942F4803287
:101F40005A61704711F0010F05D0064A536923F416
:101F500000635361E4E7034A536943F40063536148
:101F6000DEE700BF00200240164B1A7FD3B2012AE1
:101F700001D0032B10D1144A116821F400711160B3
:101F8000116841F400611160116821F40061116071
:101F9000116841F400711160023BDBB2012B03D9DF
:101FA000084B00221A777047074B1A6842F4805298
:101FB0001A601A6822F480521A601A6842F4806229
:101FC0001A60EDE7E003002000200240F8B53A4B2C
:101FD0001B78012B6DD004460E46374B01221A7038
:101FE0004FF47A70FFF7E4FE074600285CD1324BCD
:101FF00000225A60314B1B6813F4007F2FD02F4B07
:102000001B6813F4806F26D02C4A136823F4806376
:102010001360294B03221A772368012B31D04FF02C
:10202000FF333360A568A368E2681344AB4239D933
:1020300061682846FFF76AFF4FF47A70FFF7B8FE31
:102040001E4A536923F47E7323F00203536107464B
:1020500038BB0135E7E7184B01221A77DCE7174B4D
:102060001B6813F4806F08D0144A136823F480634C
:102070001360114B02221A77CEE70F4B00221A771A
:10208000CAE76068FFF71CFF4FF47A70FFF790FE15
:1020900007460A4A536923F4004323F004035361BB
:1020A00000E03560FFF760FF034B00221A703846EE
:1020B000F8BD0227FBE700BFE0030020002002403C
:1020C00070B582B0002365E085685E000324B440EB
:1020D00025EA0405CC68B4402C438460456825EAB1
:1020E0000C054C68C4F300149C402C43446062E02F
:1020F000DD08083550F8254003F0070C4FEA8C0C3A
:102100004FF00F0E0EFA0CFE24EA0E0E0C6904FAC4
:102110000CF444EA0E0440F8254063E0052400E096
:10212000002404FA0EF42C430CF1020C574D45F830
:102130002C40574CA568D44325EA0206D1F804C0C8
:102140001CF4801F01D042EA0506514DAE60ED68D7
:1021500004EA0506D1F804C01CF4001F01D042EACD
:1021600005064B4DEE606D6804EA0506D1F804C023
:102170001CF4003F01D042EA0506454D6E602D6813
:102180002C404E6816F4803F01D042EA0504404AD4
:10219000146001330A6832FA03F474D04FF0010C72
:1021A0000CFA03FC1CEA0202F3D04C6804F00304AE
:1021B000013C012C88D94C6804F00304032C0CD09A
:1021C000C4685D004FF0030C0CFA05FC24EA0C0C0B
:1021D0008C68AC4044EA0C04C4604C6804F003040E
:1021E000022C85D004684FEA430E4FF0030C0CFA22
:1021F0000EFC24EA0C0C4C6804F0030404FA0EF400
:1022000044EA0C0404604C6814F4403FC1D0214CF3
:10221000256E45F001052566246E04F00104019445
:10222000019C4FEA930C0CF10205184C54F8255010
:1022300003F0030E4FEA8E0E0F2404FA0EF425EA83
:102240000405B0F1904F3FF46BAF134CA04212D095
:1022500004F58064A04210D004F58064A0420ED042
:1022600004F58064A0420CD004F58064A0423FF4E1
:1022700055AF062455E7012453E7022451E7032410
:102280004FE704244DE702B070BD00BF00000140DD
:10229000000401400010024000040048002836D12C
:1022A0003E4B1B6803F4C063B3F5806F08D03B4A14
:1022B000D2F8803023F48073C2F880300020704759
:1022C000364AD2F8803023F48073C2F88030136825
:1022D00023F4C06343F400731360314B1B68322254
:1022E00002FB03F32F4AA2FB03239B0C013300E004
:1022F000013B2A4A526912F4806F01D0002BF7D1BA
:10230000264B5B6913F4806F44D100207047B0F511
:10231000007F08D0214A136823F4C06343F480632C
:102320001360002070471D4B1B6803F4C063B3F5B6
:10233000806F08D0194AD2F8803043F48073C2F815
:10234000803000207047154AD2F8803043F4807303
:10235000C2F88030136823F4C06343F40073136041
:102360000F4B1B68322202FB03F30E4AA2FB03232E
:102370009B0C013300E0013B084A526912F4806F64
:1023800001D0002BF7D1054B5B6913F4806F03D1AB
:102390000020704703207047032070470070004002
:1023A000B803002083DE1B43024A936843F4804352
:1023B0009360704700700040124BDA6802F003022D
:1023C000DB68C3F303130133032A11D00E48B0FBBB
:1023D000F3F00C4BDB68C3F3062303FB00F0094B5F
:1023E000DB68C3F3416301335B00B0FBF3F070477C
:1023F0000648B0FBF3F0034BDB68C3F3062303FB93
:1024000000F0ECE7001002400024F40000127A0013
:1024100038B5FEF7A1FF04462C4A136843F48073D5
:1024200013602A4B1B6813F4806F07D1FEF794FFEB
:10243000001B0228F5D90324204638BD234D6B68C4
:1024400043F080436B60FEF787FF04460123AB60D7
:102450001E4B9B6803F00C03042B08D0FEF77CFF97
:10246000001B41F288339842F2D90324E4E7184B69
:10247000184A1A60184B1868FEF72AFF044608B17C
:102480000124D9E7114B4FF480721A601A60FEF7ED
:1024900063FF05460D4B1B6813F0007F06D0FEF767
:1024A0005BFF401B0228F5D90324C5E7074B4FF417
:1024B0008052DA6000229A614FF0FF321A62D3F83C
:1024C000942042F40002C3F89420B5E700100240C3
:1024D000B80300200024F400DC030020002800F0F2
:1024E0004F8270B582B00446036813F0010F37D0F5
:1024F000A44A936803F00C03D26802F003020C2B89
:1025000023D0082B23D06368B3F5803F4ED0B3F5BA
:10251000A02F51D09B4B1A6822F480321A601A689F
:1025200022F480221A606368002B52D0FEF714FF59
:102530000546944B1B6813F4003F11D1FEF70CFFC6
:10254000401B6428F5D9032023E2032AD9D18D4BFF
:102550001B6813F4003F03D06368002B00F0128265
:10256000236813F0020F5DD0864A936803F00C03D2
:10257000D26802F003020C2B3AD0042B3AD0E36865
:10258000002B75D07F4A136843F480731360FEF705
:10259000E3FE05467B4B1B6813F4806F5FD1FEF7AB
:1025A000DBFE401B0228F5D90320F2E1754A1368CF
:1025B00043F480331360B6E703F18043A3F53C3363
:1025C0001A6842F480221A601A6842F480321A6053
:1025D000A9E7FEF7C1FE05466A4B1B6813F4003FEE
:1025E000BED0FEF7B9FE401B6428F5D90320D0E128
:1025F000022AC2D1634B1B6813F4806F03D0E368D7
:10260000002B00F0C1815F4A536823F0FE4321692B
:1026100043EA016353605C4B1868FEF759FE0028DB
:1026200040F0B481236813F0080F4CD063699BB36A
:10263000544AD2F8943043F00103C2F89430FEF7C4
:102640008BFE05464F4BD3F8943013F0020F3AD16E
:10265000FEF782FE401B0228F4D9032099E1494A83
:10266000536823F0FE43216943EA01635360D9E7CD
:10267000444A136823F480731360FEF76DFE054629
:10268000404B1B6813F4806FCCD0FEF765FE401BF7
:102690000228F5D903207CE13A4AD2F8943023F09D
:1026A0000103C2F89430FEF757FE0546354BD3F8C8
:1026B000943013F0020F06D0FEF74EFE401B0228A6
:1026C000F4D9032065E1236813F0040F00F0818042
:1026D0002C4B9B6D13F0805F36D12A4B9A6D42F0E4
:1026E00080529A659B6D03F080530193019B0125F5
:1026F000264B1B6813F4807F28D0A368012B39D0A8
:10270000052B45D01F4BD3F8902022F00102C3F8CF
:102710009020D3F8902022F00402C3F89020A36800
:10272000002B43D0FEF718FE0646164BD3F8903028
:1027300013F0020F4CD1FEF70FFE801B41F28833DD
:102740009842F2D9032024E10025D1E70F4A13680B
:1027500043F480731360FEF7FFFD06460B4B1B68C6
:1027600013F4807FC9D1FEF7F7FD801B0228F5D94D
:1027700003200EE1034AD2F8903043F00103C2F87F
:102780009030CCE700100240DC03002000700040D5
:10279000884BD3F8902042F00402C3F89020D3F87D
:1027A000902042F00102C3F89020B8E7FEF7D4FD74
:1027B0000646804BD3F8903013F0020F08D0FEF796
:1027C000CBFD801B41F288339842F2D90320E0E030
:1027D000E5B9236813F0200F35D0A369E3B1754A3A
:1027E000D2F8983043F00103C2F89830FEF7B4FDF8
:1027F0000546704BD3F8983013F0020F23D1FEF743
:10280000ABFD401B0228F4D90320C2E0694A936D56
:1028100023F080539365DCE7664AD2F8983023F0C2
:102820000103C2F89830FEF797FD0546614BD3F8D7
:10283000983013F0020F06D0FEF78EFD401B0228E1
:10284000F4D90320A5E0E369002B00F0A180594AE8
:10285000926802F00C020C2A64D0022B13D0554A65
:10286000136823F080731360FEF776FD0446514B26
:102870001B6813F0007F4ED0FEF76EFD001B022890
:10288000F5D9032085E04B4A136823F08073136069
:10289000FEF762FD0546474B1B6813F0007F06D02C
:1028A000FEF75AFD401B0228F5D9032071E0414A8A
:1028B000D36841491940236A606A013843EA00132A
:1028C000A06A43EA0023206B4008013843EA4053E2
:1028D000606B4008013843EA4063E06A43EAC06342
:1028E0001943D160136843F080731360D36843F0D9
:1028F0008073D360FEF730FD04462E4B1B6813F047
:10290000007F06D1FEF728FD001B0228F5D9032021
:102910003FE000203DE0274AD168284B0B40D360C0
:10292000002036E0012B36D0224BDB6803F0030198
:10293000226A914231D103F0F002616A0139B2EBAF
:10294000011F2CD103F4FE42A16AB2EB012F28D162
:1029500003F07842E16AB2EBC16F24D103F4C00105
:10296000226B5208013AB1EB425F1ED103F0C06303
:10297000626B5208013AB3EB426F18D1002008E0B5
:1029800001207047012004E0012002E0012000E066
:10299000002002B070BD0120FBE70120F9E7012013
:1029A000F7E70120F5E70120F3E70120F1E7012037
:1029B000EFE700BF001002400C809F01FCFFEEFE1D
:1029C0001E4B9B6803F00C03042B33D01B4B9B68FE
:1029D00003F00C03082B2FD0184B9B6803F00C035B
:1029E0000C2B01D000207047144BDA6802F0030270
:1029F000DB68C3F303130133032A11D01048B0FB83
:102A0000F3F00E4BDB68C3F3062303FB00F00B4B24
:102A1000DB68C3F3416301335B00B0FBF3F0704745
:102A20000848B0FBF3F0054BDB68C3F3062303FB58
:102A300000F0ECE70248704702487047001002407F
:102A40000024F40000127A00002800F0E680F8B5B7
:102A50000C460546744B1B6803F00F038B420BD2E8
:102A6000714A136823F00F030B431360136803F0DC
:102A70000F038B4240F0D3802E6816F001065FD022
:102A80006B68032B2FD0022B4DD0684B1B6813F4BF
:102A9000806F00F0C680FFF793FF654B98424DD9D9
:102AA000624A936823F0F00343F08003936080262A
:102AB0005E4A936823F0030369680B439360FEF753
:102AC0004BFC0746594B9B6803F00C036A68B3EB59
:102AD000820F35D0FEF740FCC01B41F2883398428C
:102AE000F0D9032078E0514B1B6813F0007F01D12F
:102AF000012071E0FFF760FC4D4B98421AD94B4B17
:102B00009B6813F0F00F05D02E6816F00206CFD0A8
:102B1000AB688BB9454A936823F0F00343F0800318
:102B200093608026C4E7414B1B6813F4003FB2D189
:102B3000012051E00026BBE70026B9E70026B7E7F1
:102B40002B6813F0020F48D013F0040F04D0374A5B
:102B5000936843F4E06393602B6813F0080F06D08A
:102B6000324A936823F47C5343F4E06393602F4A22
:102B7000936823F0F003A9680B4393602A4B1B680A
:102B800003F00F03A34230D82B6813F0040F06D0D4
:102B9000264A936823F4E063E9680B4393602B684B
:102BA00013F0080F07D0214A936823F46053296972
:102BB00043EAC1039360FFF703FF1C4B9B68C3F319
:102BC00003131C4AD35C03F01F03D8401A4B186050
:102BD0001A4B1868FEF77CFBF8BD802ECED1134A45
:102BE000936823F0F0039360C8E70F4A136823F05B
:102BF0000F0323431360FEF7AFFB06460A4B1B6827
:102C000003F00F03A342BFD0FEF7A6FB801B41F2E7
:102C100088339842F2D90320DEE701207047012073
:102C2000DAE70120D8E700BF002002400010024090
:102C300000B4C404206D0008B8030020DC030020A9
:102C4000F0B583B00446036813F4002F6ED0354B03
:102C50009B6D13F0805F1ED1324B9A6D42F0805213
:102C60009A659B6D03F080530193019B01262E4AC8
:102C7000136843F480731360FEF76EFB05462A4B1E
:102C80001B6813F4807F08D1FEF766FB401B022807
:102C9000F5D9032502E00026E9E7002545BB214BD5
:102CA000D3F8903013F4407318D0226D9A4212D0AA
:102CB0001C4AD2F8903023F44073D2F8901041F4BB
:102CC0008031C2F89010D2F8901021F48031C2F80F
:102CD0009010C2F8903013F0010F10D145B9114A8D
:102CE000D2F8903023F44073216D0B43C2F890303A
:102CF000EEB10C4A936D23F08053936517E0FEF715
:102D00002BFB0746074BD3F8903013F0020FE5D1A9
:102D1000FEF722FBC01B41F288339842F2D903250B
:102D2000DCE700BF0010024000700040002523686F
:102D300013F0010F08D09F4AD2F8883023F0030324
:102D400061680B43C2F88830236813F0020F08D083
:102D5000984AD2F8883023F00C03A1680B43C2F8DC
:102D60008830236813F0040F08D0924AD2F88830D4
:102D700023F03003E1680B43C2F88830236813F076
:102D8000080F08D08B4AD2F8883023F0C00321699D
:102D90000B43C2F88830236813F0100F08D0854A1F
:102DA000D2F8883023F4407361690B43C2F888304D
:102DB000236813F0200F08D07E4AD2F8883023F41D
:102DC0004063A1690B43C2F88830236813F0400FB9
:102DD00008D0784AD2F8883023F44053E1690B4395
:102DE000C2F88830236813F0800F08D0714AD2F8F7
:102DF000883023F44043216A0B43C2F888302368AB
:102E000013F4807F08D06B4AD2F8883023F4403323
:102E1000616A0B43C2F88830236813F4003F08D07E
:102E2000644AD2F89C3023F00303A16A0B43C2F832
:102E30009C30236813F4007F08D05E4AD2F88830B3
:102E400023F44023E16A0B43C2F88830236813F46B
:102E5000806F0CD0574AD2F8883023F44013216B8E
:102E60000B43C2F88830236BB3F5801F79D02368F9
:102E700013F4006F0CD04F4AD2F8883023F440038B
:102E8000616B0B43C2F88830636BB3F5800F6DD074
:102E9000236813F4805F0CD0464AD2F8883023F0C0
:102EA0004073A16B0B43C2F88830A36BB3F1807FF2
:102EB00061D0236813F4005F0CD03E4AD2F888300A
:102EC00023F04063E16B0B43C2F88830E36BB3F14E
:102ED000006F55D0236813F4804F0CD0354AD2F8D8
:102EE000883023F04063216C0B43C2F88830236C98
:102EF000B3F1006F49D0236813F4004F0CD02D4A72
:102F0000D2F8883023F04053616C0B43C2F888300C
:102F1000636CB3F1805F3DD0236813F4803F0CD025
:102F2000244AD2F8883023F04043A16C0B43C2F806
:102F30008830A36CB3F1804F31D0236813F4802F15
:102F40000CD01C4AD2F89C3023F44013E16C0B43A4
:102F5000C2F89C30E36CB3F5001F25D0284603B0BF
:102F6000F0BDD36843F48013D36080E7D36843F4A3
:102F70008013D3608CE7D36843F48013D36098E761
:102F8000D36843F48013D360A4E7D36843F4801379
:102F9000D360B0E7D36843F48033D360BCE7D36831
:102FA00043F48033D360C8E7D36843F48013D3601D
:102FB000D4E700BF001002408446B0B1407CB0B9F5
:102FC000B9B1032A17D9C3B1DCF80420D06A48B1DB
:102FD000002092F83020803202430A6004221A60F6
:102FE000002070474FF00040F3E7092070470920A8
:102FF000704709207047092070470920704780B347
:10300000844681B38BB3032A02D8407C78BB82B359
:1030100010B5DCF8040090F824E0BEF1010F2AD9C5
:103020009CF811409CB190F82820944225D890F843
:103030002520121B94B2002A10DB72451FDA006AA9
:1030400050F832200A6004221A60002010BD90F867
:1030500028200A7001221A600020F7E7744422B287
:10306000EDE70920704709207047092070470920C3
:103070007047092070470920E8E71920E6E7092092
:10308000E4E7844670B1407C70B979B1012A0FD170
:1030900083B10A7882B9DCF8042082F82800012282
:1030A0001A6070470920704709207047092070474F
:1030B00009207047092070470F2070472DE9F04F15
:1030C00085B09DF838B0DDF83C90DDF844A09DF85F
:1030D0004880002874D00D4616461F460446002A34
:1030E00071D0002B5ED0B9F1000F6FD0002D70D0E1
:1030F000B8F1000F70D018F0800F70D1BAF1000F46
:1031000070D058220021204603F016F9E561002313
:1031100001221946304600F062FC6061002847D069
:1031200000210170276284F824B001230093042356
:1031300003AA484600F020FC024618B92E4B03991A
:103140000B403BB1139B1BB1B9F8003013990B60D6
:10315000002A4AD1039BDB43DB0FE362A463274BC6
:10316000E363274B236404F13803C9F8083084F87B
:103170003080002301930822009208F18002BDF8FC
:103180004010284602F030FA606388B3A4641D4BF7
:10319000E3641D4B23654834CAF80840002005B09D
:1031A000BDE8F08FBBF1010F9DD94FF0FF30F6E77E
:1031B000139B13B13388139A13606FF00B00EEE783
:1031C0004FF0FF30EBE74FF0FF30E8E74FF0FF3014
:1031D000E5E74FF0FF30E2E74FF0FF30DFE74FF079
:1031E000FF30DCE74FF0FF30D9E76FF00B00D6E798
:1031F0004FF0FF30D3E700BF00F8FF7FB92F000882
:1032000091370008FF2F000883300008002852D0B3
:1032100030B584464FEAD20E02F007040120A040E8
:10322000C0B29F2A05D9039201204FF0050E4FF43A
:10323000C24375461CF80EE00EEA000469B3CCBB2D
:1032400043EA026361B34EEA000E0CF805E09CF815
:10325000241001292ED99CF82500421CD2B291429B
:1032600000D800229CF82610914220D0DCF82010D3
:1032700041F83030DCF8203003EBC003039959608B
:103280008CF825209CF828209CF82430013B9A4299
:1032900010DA01328CF828200CE05CB10023CFE773
:1032A000C04340B20EEA000E0CF805E0CFE7012360
:1032B0008CF8273030BD7047F0B583B004460F4618
:1032C000C3695E8A058BB54217D07540068340F20C
:1032D00001131D422FD115F0020F38D115F0040F44
:1032E00040D115F0080F48D115F0800F50D115F4DA
:1032F000007F58D115F4006F60D1637903B10123C9
:1033000062880AB143F0100322890AB143F08003B6
:10331000626913706FB194F82420012A09D994F8D6
:10332000265094F82520AA4203D0626B1269002A25
:103330004ED003B0F0BD00230093012240F20111F2
:103340003140C91A18BF0121FFF760FFC3E700230E
:10335000009348F220130722C6F340012046FFF7EE
:1033600055FFBBE70023009348F240131222C6F337
:1033700080012046FFF74AFFB3E70023009348F29D
:1033800010131422C6F3C0012046FFF73FFFABE73E
:10339000002300934FF401431522C6F3C0112046C9
:1033A000FFF734FFA3E70023009348F2201306221F
:1033B000C6F340212046FFF729FF9BE70023009337
:1033C00013231A46C6F3C0212046FFF71FFF94E7D8
:1033D000216A51F8352042EA034241F83520636BF7
:1033E000226A02EBC50052F835104268C3F8051096
:1033F000C3F80920616BE06902F05AF90135EDB2BA
:1034000094F82430AB4200D8002584F8265094F874
:103410002730012B0FD0022B8BD194F82530AB42F3
:1034200087D1002184F8271000910B4620222046E6
:10343000FFF7ECFE7DE7022384F82730002300939A
:103440004FF48053202201212046FFF7DFFE70E772
:1034500008B50B7991F805C08A79022B00D008BD18
:1034600012B1C3789342FAD180F802C0C36A002B2C
:10347000F5D0006B9847F2E7A8B18446407CA0B92C
:10348000A9B1022A15D1B3B110B5DCF804400888FF
:103490004FF47A7E0EFB00F0A0600020E0606046F2
:1034A00000F076F910BD0920704709207047092007
:1034B0007047092070470920704700002DE9F0434C
:1034C00087B0DDF84080DDF84C9000286AD00D46CA
:1034D00016461F460446002967D0002A68D0B8F176
:1034E000000F68D0B9F1000F68D03822002102F037
:1034F00023FFE770BDF83830A3802662BDF83C306A
:103500004FF47A7202FB03F3E3600123009302237A
:103510000DF116020021284600F02EFA38BBBDF846
:1035200016304FF47A7202FB03F3A3602461254B3B
:103530006361254BA36104F11003AB60E268A368EB
:103540009A4200D9E360214B029301940023009337
:1035500040F2FF73BDF84820BDF84410404601F02A
:10356000F6FF054658B1284607B0BDE8F083169B24
:1035700013B12B88169A13606FF00B05F3E7C4F8AC
:1035800024900023019301220092BDF85420BDF83D
:103590005010484602F028F8A0620028E3D14FF00E
:1035A000FF35E0E74FF0FF35DDE74FF0FF35DAE7B5
:1035B0004FF0FF35D7E74FF0FF35D4E74FF0FF3539
:1035C000D1E700BF333700087934000851340008D0
:1035D0002DE9F04104460F4690F90080C3689342FC
:1035E0001BD99A1AE260B8F1000F06D0A368D3B1D4
:1035F0001AB194F90130434525D0A36A83F80580B8
:10360000A16A606A02F054F8B8F1000F07D1A388EC
:1036100013F4807F19D0052106E00022E2E7A368B9
:10362000E360414600E041466170A6782EB3802EEB
:1036300014D00CD9812E1AD0822E1BD10D46012612
:103640000023A3701AE04146EEE77F21ECE7012E4C
:1036500007D0022E08D100260425F1E700267F2599
:10366000EEE700260525EBE70D460026E8E70D46C8
:103670000226E5E70D460026E2E70D46A38813F48F
:10368000805F0ED0226AD2B1907810F0040F18D16A
:10369000D27812F0080F16D112F0100F15D10022B7
:1036A00000E00022104613F4005F14D0226A72B1C9
:1036B000526972B112781A400ED001220CE0012238
:1036C000F0E70122EEE70122ECE70122EAE700221F
:1036D000F1E70022EFE700229446052D0ED013F407
:1036E000004F13D1A9421CD0636B0BB128469847F9
:1036F000257007B13D703046BDE8F08108B9002A59
:10370000EDD013F4804F0AD00425EBE77F2DE9D1EB
:103710000028E7D1BCF1000FE4D10525E2E77F25C1
:10372000E0E7B8F1000FE3D1DEE7022070470220A6
:103730007047F8B510B30C461D46034601B30DB3F0
:103740008668016801B3C06808B9964214D9B042CE
:103750001CD2361A0144B2420BD21044D86016462D
:103760004FF0FF3732462046FCF7CEFF2E6038463A
:10377000F8BD0027DF60F5E70027F3E70927F6E744
:103780000927F4E70927F2E70E27F0E70927EEE714
:1037900070B510B31C46034609B314B385680068BE
:1037A00008B3DE680EB9954215D9AE421DD2AD1BE5
:1037B0003044AA420CD21644DE6015464FF0FF3664
:1037C000954214D32A46FCF79FFF2560304670BD12
:1037D0000026DE60F4E70026F2E70926F6E7092670
:1037E000F4E70926F2E70E26F0E70926EEE70C26B5
:1037F000ECE730B5054670B302884AB3013A92B29D
:103800004FF0000E02E001331FFA83FE964512D2FC
:103810000EEB0203C3F34F036C6803EB430C04EBA2
:103820008C0034F82C408C4215D0ECD913B1013BFC
:103830009AB2EBE71A4696450CD16B680EEB4E0E2A
:1038400003EB8E0033F82E308B4204D0002002E0D0
:10385000002000E0002030BD002869D030B584464B
:103860004568002D66D0002A66D0C07800F00F00B1
:1038700002280CD0032823D001285FD100295FD172
:103880002879107428681060A868906031E09CF86E
:103890000200884256D931B9287A1074286810601D
:1038A0000120906025E0687A1074686820B12C6966
:1038B00001F1FF3E0EFB04001060E868906018E024
:1038C00000209CF8024084420AD900EB400405EB3A
:1038D000840494F804E08E4503D00130C0B2F0E7D0
:1038E0000024002C30D06079107420681060A0682B
:1038F0009060DCF8080000B14BB1144B5361144BDD
:103900009361002353600020D060517430BD436840
:1039100053B15361DCF808309B683BB19361DCF82C
:1039200008301B685360EEE70A4BF2E70A4BF5E7F5
:10393000052070470520E9E70920E7E70920E5E7CA
:103940000E20E3E70E20E1E70E20DFE73337000823
:10395000913700082B3700082F370008C3B2192B06
:1039600003D8034B53F8200070470248704700BF4C
:10397000806D000847000406AAB130B589B01C4626
:103980001546002300930C9B01AAFFF765FF40B981
:10399000039BA34209D16B462246294601A8069CF7
:1039A000A04709B030BD092070470B20F9E730B5BA
:1039B00089B015461C46002300930C9B01AAFFF713
:1039C0004BFF40B9039BA34207D16B4622462946D1
:1039D00001A8079CA04709B030BD0B20FBE730B51C
:1039E00089B015461C46012301AAFFF735FF03469F
:1039F00058B9019A32B1039A32B135B1AA4204D012
:103A00000B2302E0092300E0092304B1237013B95A
:103A1000019809B030BD0020FBE791F804C090F890
:103A20006C308268EAB100B501F1050E027B624597
:103A300013D80CD07BB1D1F80510DEF80420416614
:103A400082660122026680F86C305DF804FB012B6F
:103A5000F1D10B23EFE70D23EDE7002BF3D10C237E
:103A6000F1E780F86C3070472DE9F04F95B0804653
:103A70000891104606929A4600218DF84F100123B6
:103A800000930DF14F02FFF777FF40B99DF84F30DB
:103A9000082B11D800240394099057466AE01E9B16
:103AA0002BB1069B33B11B881B021E9A13606FF06B
:103AB0000B0205E00023F7E701231F9A136002467B
:103AC000104615B0BDE8F08F1E9B33B1069B3BB18D
:103AD0001B8844EA03231E9A13606FF00B02EFE782
:103AE0000023F6E7079A1F990B60E9E74A4A231D6E
:103AF00048F823200134E4B2AC4239D2002FF5D08B
:103B0000464AF4E70423059365E008EB040200212C
:103B100082F83010221D48F822300134E4B201331B
:103B2000AC420AD29DF8402012F0200FEDD008EBF5
:103B30000402012182F83010ECE7CFB9B9F11F0F70
:103B400016D8049B9B689BB14FEAD9099DF80C20BD
:103B500009F108094B44043302F10E0148F8213001
:103B60000BF00703012101FA03F3424482F85830B5
:103B7000344603959DF84F30A34243D900230B935D
:103B8000661CF6B20123009304230BAA3146069863
:103B9000FFF7F2FE0790002896D10B9B190C4FEA15
:103BA000132BC3F30729C3F3C40A039AD4B20AEB55
:103BB000020513F0070F95D1082D93D81F2902D8BD
:103BC000B9F1000F98D00898FFF713FE0490002F6A
:103BD00098D00823059301230CAA49460498FFF7BF
:103BE0003BFE50B99DF84030059A134205D00E9B1C
:103BF0009A4502D80C9B002B92D1079A0B9B1F99D8
:103C00000B605DE7099D9DF80C3088F80D3088F851
:103C10000C302A4654E700BF9C1200209D12002061
:103C20002DE9F04383B00546036E03F1050890F8D3
:103C30006470013FFFB20024A14623462EE02A49CA
:103C40000198FCF7EBFBFCF739FD009000230AE03C
:103C500009EB030203F10801694411F8081C08F894
:103C600002100133DBB2032BF2D94FF000094B46AF
:103C700005E0221D55F82220127808F8042006F1EC
:103C80000E0255F822203AB1FC2F05D911782E44A6
:103C900096F85800014311700134E4B22A7BA24225
:103CA00015D926462A1992F83020002AE1D003B906
:103CB000A146321D55F822105A1CD2B20978083399
:103CC0006B4403F8041C042AB9D01346D7E7002339
:103CD000AB662B6FAB67EB6E6B67296E686801F0A4
:103CE000E7FC03B0BDE8F0830050C3472DE9F0477F
:103CF00088B0DDF840A0DDF84490129F002800F065
:103D00008E800D46164698460446002900F08A80AB
:103D1000002A00F08A80BAF1000F00F08980B9F122
:103D2000000F00F08880002F00F0888078220021AA
:103D300002F002FB266067600023079307AB019344
:103D4000149B009301234A4629462046FFF78CFE28
:103D5000054618B1284608B0BDE8F0870023069351
:103D600001210091042306AA5046FFF705FE70B911
:103D7000069BDE43F60FC3F30A05002B14DB627BC0
:103D800002B18DB9079E76B9012207920CE0149B0F
:103D900033B1BAF800301B0243F00103149A1360E8
:103DA0006FF00B05D6E70026079A52B12068012A6A
:103DB00000D0134600934FF402431A220121FFF76B
:103DC00025FA36B135B128F07F03AB4202D1454622
:103DD00000E000251B4B029301940023009340F266
:103DE000FF732A46BDF84C10384601F0B0FB05467B
:103DF0000028AFD1A6600023ADF816300123009350
:103E000002230DF1160205215046FFF7B5FDBDF85E
:103E100016304FF47A7202FB03F323679AE74FF0F0
:103E2000FF3597E74FF0FF3594E74FF0FF3591E707
:103E30004FF0FF358EE74FF0FF358BE74FF0FF3542
:103E400088E700BF1B3A00082DE9F04184B0054621
:103E500088468268002A7DD0002B7BD090F86C3099
:103E60000A2B10D9B3F10B0418BF01240C2B0CD072
:103E700048F220232A7B0092042221462868FFF77B
:103E8000C5F985F86C40002239E048F21023F1E7CB
:103E90000298FCF76FFA3349FCF774FB0390002398
:103EA0000BE0FA18043255F8222003F1100169449E
:103EB00011F8041C11700133DBB2032BF1D9002778
:103EC0003B4604E0221D55F82220315D117001347B
:103ED000E4B22A7BA24211D92A1992F83020002A92
:103EE000F0D003B927465A1CD2B2315D10336B446F
:103EF00003F8081C042ACBD01346E8E701222B6EF6
:103F000033B105F1640600232B661C461F46E0E72B
:103F10002B6F23B36AB16A6F934202D301236B679D
:103F20001DE000920023172219462868FFF76EF95A
:103F3000F4E76A6F9AB1934211D942446A67934297
:103F40000DD2009248F25023172201212868FFF772
:103F50005DF904E000232B666B6F43446B6704B08C
:103F6000BDE8F0810050C3472DE9F04786B00E9FB1
:103F7000DDF83CA0DDF84080002800F0C8800D4648
:103F8000164699460446002900F0C480002A00F035
:103F9000C480002F00F0C480BAF1000F00F0C3808D
:103FA000B8F1000F00F0C2807C22002102F0C4F9B9
:103FB0002660C4F804800023059305AA0192129A92
:103FC0000092524629462046FFF74EFD054618B19D
:103FD000284606B0BDE8F087FE238DF81330012394
:103FE00000930DF1130202213846FFF7C5FC0028AB
:103FF0003DD19DF81330FD2B02D8FE238DF81330F0
:104000009DF8133084F864300121A16600230393E6
:104010000091042303AA3846FFF7AEFC054688BB8F
:10402000039BDE43F60FC3F30A0A002B08DB627B17
:1040300012B1BAF1000F03D1059E76BB01220592A1
:10404000059A52B12068012A00D0134600934FF41C
:1040500002431A220121FFF7D9F806B3BAF1000F83
:104060001FD029F07F0353451BD1CA4619E0129B8C
:104070002BB13B881B0243F00203129A13606FF0CE
:104080000B05A5E7129B2BB13B881B0243F00103F4
:10409000129A13606FF00B059AE70026D0E74FF0F5
:1040A000000A94F86430F02B8CBF002301230193A5
:1040B000237B009300235246BDF84410404601F094
:1040C00093FA2066A8B3A6600023ADF80A30ADF8D5
:1040D00008300126009602230DF10A02032138461A
:1040E000FFF74AFC0096022302AA05213846FFF793
:1040F00043FCBDF80A30642202FB03F3E366BDF81B
:1041000008304FF47A7202FB03F3236760E74FF045
:10411000FF355DE74FF0FF355AE74FF0FF3557E7C2
:104120004FF0FF3554E74FF0FF3551E74FF0FF35C3
:104130004EE74FF0FF354BE708B58268002A3ED0C6
:10414000002B3CD090F864E00EF1FF33DBB2FC2B87
:104150000BD9036F3BB1836F8B4214D95B1A836712
:104160000BB901238366836E2BB3BEF1FD0F2BD9F0
:10417000436F8B4221D95B1A4367826E22B31BBB0C
:10418000FFF74EFD20E00023E9E70133DBB2427B7D
:104190009A42EAD903F10E0250F82220002AF4D004
:1041A00092F800C0C21892F858201CEA020FECD115
:1041B00001238366D9E70023E9E70023DCE7012335
:1041C000836600238367436708BD00002DE9F04143
:1041D00084B00546084611461F460A9C0B9B002CDE
:1041E00008DBA2B2002B07DB9CB23AB134B1012349
:1041F0002B6106E00022F5E70024F6E700222A61A1
:104200001446104B029301954FF00008CDF8008042
:1042100040F2FF7301F09BF90646CDF804800823B5
:104220000093434622463946286801F0DDF968606C
:1042300018B1304604B0BDE8F081C5F810804FF0E9
:10424000FF36F6E7494200080A79082A00D070478D
:1042500010B504464B1D4979802902D0816B19B1F4
:1042600010BD00230375FBE719463C30FCF74CFA00
:104270000123A363D4F88830002BF1D0D4F88C004C
:104280009847EDE770B582B004460D46006D0028F2
:1042900047D0636C5BB1A26C934208D005D2414B0E
:1042A0002B600123237500207AE03F4BF8E7236A57
:1042B00094F92820002A05DB3BBBA36C2362002372
:1042C000019340E013B1A26C9A42F5D2D4F8802059
:1042D000911C2029F0D8501CC4F8800022440026EC
:1042E00082F85C60A26C561CA6640BB19E4207D299
:1042F000C4F880102044002380F85C300232A264AD
:10430000A36C2362002301931DE0A26C9A4215D096
:1043100005D9244B2B6001232375002040E0224B5C
:10432000F8E7636C6BB1A26C934202D30023019354
:1043300009E01C4B0B600123237531E0002301933E
:1043400001E00023019301ABD4F8802004F15C016B
:1043500004F11800266BB04703460022C4F8802001
:10436000421CD2B2012A08D8206D10B1B3F1FF3F30
:104370000AD0A0B973B1012012E0FFF7EFFA28606C
:104380000123237500200BE0074B2B6001232375CD
:10439000002005E0034B2B600123237500E0012082
:1043A00002B070BD12000706130007062DE9F04F9A
:1043B00083B0D0F88070D0F88480A7EB0809056D31
:1043C000002D5AD104468B461646914501D301254E
:1043D00054E000F15C0A4A460AEB0801504601F03D
:1043E0002FFF0023C4F88430C4F88090A8EB0702A4
:1043F0000193CA4401AB2032514604F11800E76A28
:10440000B8478046431CDBB2012B10D8019B1BB17F
:1044100094F92820002A11DB019B4B44C4F880301A
:10442000FBB1B8F1FF3F1CD0012323651DE0FFF76E
:1044300095FACBF80000012323751FE000220AF84B
:1044400003205046FCF7FCF9034600B90123019A0A
:104450009A42E1D90193A26C1A4422624FF00008FB
:10446000DAE700222265B34201D3012506E0054BBD
:10447000CBF800300123237500E00125284603B066
:10448000BDE8F08F470004062DE9F04F87B0119F7B
:10449000DDF84C80002800F0A5801646044600296F
:1044A00000F0A380002F00F0A380B8F1000F00F00F
:1044B000A28081600373BDF840204FF47A7101FB44
:1044C00002F2426500220275C0F88820C0F88C20F4
:1044D000002E40D03588B5F5905F57D005F56D4377
:1044E000FF339BB27E2B00F28F804FF0010BCDF893
:1044F00000B05B460DF10F0200213046FFF73CFA99
:104500008246CDF800B0042304AA59463046FFF78E
:1045100033FA8146CDF800B0042305AA02213046C3
:10452000FFF72AFABAF1000F51D19DF80F30023B84
:10453000DBB25B454BD8B9F1000F48D1002846D11A
:10454000049B002B49DBC3F30A09059D002D47DBC3
:10455000C5F30A0508E05AB2002A4FDD03F5C06929
:1045600003F5B065012303610023A363C4F8008051
:104570000195CDF80090BDF85030BDF8482039467F
:104580002046FFF723FE07B0BDE8F08F5AB2002A9D
:1045900037DD03F5C06903F5B0654FF0010AC0F8D7
:1045A00010A0CDF814900DF1140BCDF800A0042349
:1045B0005A4651463046FFF7FAF90595CDF800A066
:1045C00004235A4602213046FFF7F1F9CCE7159B48
:1045D00003B11D606FF00B00D5E74FF00009B4E7A1
:1045E0000025C1E74FF0FF30CDE74FF0FF30CAE7BD
:1045F0004FF0FF30C7E74FF0FF30C4E74FF0FF3018
:10460000C1E74FF0FF30BEE74FF0FF30BBE718B116
:10461000C0F88C10C0F888207047000070B584B0D6
:10462000002800F0D982044600230393806B23699D
:1046300023B1257D15B9002800F0D18201B12BB935
:1046400000252575A563284604B070BD002800F03C
:104650008781237D93B994F83C3003F0F002202A3F
:104660002ED0402B30D09A4B039301232375002585
:10467000039B6BB315B1039B002B60D0237D002BF4
:1046800000F06B81237D012B00F06781237D113BBE
:10469000122B00F25E81DFE813F078005C01E90084
:1046A0005C015C015C015C015C015C015C015C0122
:1046B0005C015C015C015C015C0140015C01430147
:1046C000112323750025D3E7212323750125CFE787
:1046D00094F83E3094F83D1041EA0321A18694F805
:1046E0003F3084F83630A068FFF783F8002304F1E8
:1046F000180294F83610FFF7AFF848B994F828304C
:1047000013F0030F0AD1734B039301232375B1E711
:10471000FFF724F9039001232375ABE73DB113F0B4
:10472000010FA8D16C4B039301232375A2E713F06B
:10473000020F9FD1694B0393012323759AE7C4F8B5
:104740008030C4F88430A3642365072203A920467F
:10475000FFF72CFE002891D0236D7BB1236A6364A0
:104760001BB9D4F88030636488E7D4F88020934282
:1047700084D05B4B0393012323757FE794F92820B2
:10478000002A00DB236A636478E794F83C3013F076
:10479000020F4BD0266A13F0010F21D0C3F381031F
:1047A000C3F1040501A80023019383802A4604F184
:1047B0004001FBF7A9FF94F92830002B17DB16BB4B
:1047C000256200230093266B6B462A4601A904F15B
:1047D0001800B04720BB1223237501232365BCE0DA
:1047E000731E022B01D90425DCE73546DAE70EB14A
:1047F000B542E4D2761B012E00D002263544256254
:1048000000230093DFE7B54207D004D9354B03936B
:1048100001232375A1E0344BF9E700230093D2E78D
:10482000FFF79CF803900123237596E013F0010F26
:1048300015D0226A236C63649AB19A4204D2294B40
:1048400003930123237588E09A420AD994F928300A
:10485000002B06DB244B0393012323757DE000230B
:104860006364122323750023236576E094F83C30BB
:104870001F2B4DD803F00102226503F0100294F8BB
:104880004C10914204D0194B03930123237564E02B
:104890006FEA530303F0070504F15C03D4F88000CA
:1048A0002A4604F13D011844FBF72EFFD4F880306E
:1048B0002B44C4F88030A26C2A44A264216AB9B1A6
:1048C0008A4215D9074B03930123237545E000BFA6
:1048D00001000405000001060100010602000106B6
:1048E0004700040612000706130007060000030530
:1048F000226D1AB9C3F12003082B06D800231A46EB
:1049000003A92046FFF7BEFC38B31423237524E027
:10491000994B0393012323751FE0222323751CE089
:1049200094F83C3003F0EF02602A04D0924B0393DA
:104930000123237511E003F0100394F84C209A42F0
:1049400004D08E4B03930123237506E024232375A3
:1049500003E0894B0393012323750022A265A26320
:10496000A36D616D8B4201D21344A365A36D99427F
:1049700003D8834B03930123237563681A690AB133
:10498000042560E6C3F80520C3F80920237D123B07
:10499000122B00F2FB80DFE813F01300F9003A005D
:1049A000F900F900F900F900F900F900F900F9003F
:1049B000F900F900F900F900F9005800F900930036
:1049C000636860225A71636894F834209A71A38EE8
:1049D00062681B0AD371636894F836201A72002348
:1049E000A3656168206800F063FE236D1BB10020A1
:1049F0002075054627E6002384F84C30A364C4F8EC
:104A00008030C4F88430132323750125BFE094F867
:104A10004C30626843F02003537194F84C3073B902
:104A2000102384F84C300023A3656168206800F0EF
:104A30003FFE236D2BB100202075054603E60023C1
:104A4000EFE7132323750125A1E0636C5A1E032AA7
:104A50001ED98BB36268412151716268C2F8093076
:104A6000002384F84C30A365232323750125636854
:104A700094F834209A71A38E62681B0AD37163681C
:104A800094F836201A726168206800F011FE7EE00A
:104A9000C3F10403DBB29B00DBB2626843F0430363
:104AA00053716068626C04F15C010930FBF72CFE05
:104AB000002020750546DAE7636840225A71CFE787
:104AC0000023072203A92046FFF770FC002800F00E
:104AD0008180626894F84C305371A3B9102384F834
:104AE0004C30D4F88060D4F88430F61A062E0CD9F5
:104AF000236D0BB1072E08D00023A3652323237554
:104B0000072601250FE00023E9E761684A79C6F12D
:104B10000703DBB25B00DBB2134343F001034B71CD
:104B2000002020750546606804F15C03D4F8841009
:104B3000324619440630FBF7E7FDD4F8843033449D
:104B4000C4F88430A36C3344A364626C7AB193429A
:104B500004D90C4B03930123237518E03DB993420C
:104B600005D2094B039301202075054612E06168C8
:104B7000206800F09DFD0AE0010004050000030527
:104B80000000040512000706130007060125012D89
:104B90007FF459AD237D012B7FF455AD63688022EE
:104BA0005A71636894F834209A71A38E62681B0A64
:104BB000D371636894F836201A726368039AC3F855
:104BC00009206168206800F073FD002323756FF0F1
:104BD000090538E50125DAE76FF0010533E5002521
:104BE00031E500BF18B310B50446806800F0A8FC9A
:104BF000206901F045F8E06801F042F8A06801F092
:104C00003FF8206C01F03CF8A06B01F039F8206B04
:104C100001F036F8606A01F033F8E06A01F030F82C
:104C2000A06901F02DF8204601F02AF810BD704768
:104C30002DE9F84F0D460446002800F00581037861
:104C4000012B00F20381037A012B00F20A81037C1D
:104C5000012B00F2098190F82830802B00F20781A7
:104C600090F83030802B00F2058190F84030012B15
:104C700000F20381B0F85430B3F5007F00F20081F8
:104C8000B0F86030B3F5007F00F2FD8090F8383066
:104C9000012B00F2FB8090F86C30012B00F2F980C0
:104CA00090F86D30012B00F2F78090F87430402BB3
:104CB00000F2F58090F89030012B00F2F38090F82C
:104CC0009130012B00F2F18090F89230012B02D943
:104CD00000263446BCE04821012000F087FF07464B
:104CE000002800F0E580446094F80080B8F1010FDE
:104CF00065D04FF00008482694F810A0BAF1010FD3
:104D00006AD04FF0000A94F82890B9F1000F40F0F3
:104D10008180B4F854B0BBF1000F40F08880B4F843
:104D2000600058B17C2100F061FF3864002800F079
:104D3000CD80B4F860007C2303FB00660022BA83B8
:104D4000A7F82880A7F83C8008EB0B039BB2BB8632
:104D50004B449CB2BC82FA837A85A7F844A00AEB44
:104D600000039BB2FB864B449BB23B8498441FFAE2
:104D700088F8A7F816802C21012000F037FFB860D2
:104D8000002800F0A5802C360C21204600F02EFFD4
:104D9000F860002800F09E8004EB440406EB8406D3
:104DA0001821404600F022FF3861002800F094806E
:104DB00008EB480806EBC80601233B604CE03821AD
:104DC000404600F013FFB861002874D026783823DD
:104DD00003FB06F648368FE75821504600F006FFE1
:104DE000786200286AD0237C582202FB036694F87C
:104DF000209009F101095FFA89F9B9F1010F82D90F
:104E00000821484600F0F2FEF862002858D006EB70
:104E1000C90678E79021484600F0E8FE386300288C
:104E200050D094F82890902303FB096671E778210D
:104E3000584600F0DBFEB863002845D0B4F854B003
:104E4000782303FB0B666AE7002601E00026344660
:104E50002046FFF7C7FE002705B12E603846BDE8A3
:104E6000F88F00263446F3E700263446F0E70026A4
:104E70003446EDE700263446EAE700263446E7E705
:104E800000263446E4E700263446E1E700263446AF
:104E9000DEE700263446DBE700263446D8E7002666
:104EA0003446D5E700263446D2E700263446CFE71D
:104EB00004460026CCE73C464826C9E73C46C7E7FF
:104EC0003C46C5E73C46C3E73C46C1E73C46BFE736
:104ED0003C46BDE73C46BBE73C46B9E7B8B170B5D8
:104EE00084B00D4616460446836800225A6108467F
:104EF00000F0B6FA0296E38A019323690093A38A2D
:104F0000E2682946A06800F0B7FA04B070BD4FF01F
:104F1000FF3070472DE9F0478AB0BDF854909DF8F6
:104F20006070DDF86480002800F08C8015461E4615
:104F3000044643681A7812B9002900F08680187C6C
:104F400010B9002D00F0848002B9A161002D3FD07E
:104F5000002222607AB2002A7DDD1A7C012A39D033
:104F600063681A78012A4DD0636893F82820002AD4
:104F700074D0DA6A4FF0000C636893F828309C45CF
:104F80005EDA0CEBCC0E02F10C05A168A38E1FFAC1
:104F90008CFAB4F836C0CDF81480D4441FFA8CF0E3
:104FA0000490039153449BB202930191CDF8009079
:104FB0003B463146206B00EB0E10FFF765FA0346C7
:104FC00000284CD10AF1010C0FFA8CFC2A46D3E7D9
:104FD000656ABDE793F820105A69CDF814800497EC
:104FE000586A0390608D02909B6901934B1CDBB261
:104FF0000093E36AA168606AFEF760F80346002840
:10500000AED02CE0A2685968CDF8208007F5E063A7
:105010000793238C0693059200230493A38B039399
:105020000292BDF850300193BDF84C3000933B46DE
:105030002A46A069FEF742FA0346002894D00EE003
:1050400000230CE04FF0FF3309E04FF0FF3306E0A0
:105050004FF0FF3303E04FF0FF3300E0002318462A
:105060000AB0BDE8F0872DE9F04F87B0DDF8409039
:10507000002800F085800E461746984605465BB22C
:10508000002B0ADD036843B94368B3F85420002AB3
:105090003BD0986DDA6D00242AE02B682BB16FF0BD
:1050A0001203184607B0BDE8F08F4FF0FF33F8E762
:1050B0000023C4EB041C00F10C0A02F10C0BA98FB5
:1050C000A4B2CDF81090214489B20391A96802914D
:1050D0000192009032463946A86B00EBCC00FEF7F7
:1050E00005FE03460028DCD1013424B25A4650465E
:1050F0006B68B3F854309C4207DA032CD8DCA31C4D
:105100001B029BB243449BB2D3E76B68B3F86020A9
:10511000002A38D0586E9A6E002420E00023C4EB99
:10512000441C00F10C0A02F10C0BB5F84410A4B2B7
:10513000CDF81090214489B20391A968029101929F
:10514000009032463946286C00EB8C00FEF70CFFCD
:1051500003460028A5D1013424B25A4650466B6854
:10516000B3F860309C4209DA032CD7DC23029BB2EF
:1051700043449BB203F5C0739BB2D0E7002390E792
:105180004FF0FF338DE700238BE72DE9F04383B029
:10519000054616461F46836913B393F900308DF810
:1051A00007307F2B20D0052B1CD00024A86800F0EE
:1051B000ADFA2B68002B44D16B681B7C012B15D0FA
:1051C0006B681B78012B18D04FF000099DF9073050
:1051D0007F2B1ED0052B19D04FF00008002427E0AC
:1051E0000023DCE70124E1E70124DFE73B46324608
:1051F0002146686AFEF760F8E2E73B4632460DF169
:105200000701A869FEF7E4F98146DFE74FF00108DE
:10521000E4E74FF00108E1E7286B04EBC40C3B46E0
:105220003246414600EB0C10FFF7F8F90134E4B2C6
:105230006B6893F828C0A445EED8484603B0BDE893
:10524000F0834FF00009F8E72DE9F04383B098466A
:10525000036823BB05460E461746836953B193F98D
:105260000090B9F1050F14BF4FF000094FF001098C
:1052700000240FE04FF00009F3E7A86BC4EB041C17
:1052800000964B464246394600EBCC00FEF7DCFD6B
:10529000013424B26868B0F854008442EDDB03B0F6
:1052A000BDE8F0832DE9F04383B09846036823BB43
:1052B00005460E461746836953B193F90090B9F13C
:1052C000050F14BF4FF000094FF0010900240FE053
:1052D0004FF00009F3E7286CC4EB441C00964B46E2
:1052E0004246394600EB8C00FEF726FF013424B21B
:1052F0006868B0F860008442EDDB03B0BDE8F0837D
:105300002DE9F04784B006460DF105034F4AFCF73E
:10531000FDFA002840F0968005464C4B1F689B68BC
:10532000B3F1005F0DD000231F430097474BDB68AC
:10533000082B3DD8DFE803F0081C2024282C30344B
:1053400038004FF40043EFE700238DF804302C467B
:105350003F4B1B78A34251D904EB84033D4A52F8DA
:1053600033309B681B68B34226D00134E4B2EFE7C8
:1053700001238DF80430EAE702238DF80430E6E7D4
:1053800003238DF80430E2E704238DF80430DEE7D0
:1053900005238DF80430DAE706238DF80430D6E7CC
:1053A00007238DF80430D2E708238DF80430CEE7C8
:1053B00000238DF80430CAE792464FEA840904EBD3
:1053C000840802EBC808D8F814300133C8F8143048
:1053D000FBF7C2FFC8F81C00A1445AF839309B689B
:1053E0005C681B8943B122887A4061880A4216D0E2
:1053F000013B9BB20C34F5E72F4601E02F46002419
:10540000154B1B78AB4216D94FF4467305FB03F3DB
:10541000124AD358B34204D00135EDB2F0E7012768
:10542000EEE713464FF4467202FB05335D6804ABAA
:1054300013E90F00A8472FB124B1A36813B169463F
:105440006068984704B0BDE8F08700BFA012002054
:10545000CD120020301F0020CC120020D0120020DE
:1054600008B5FCF7E7F908BD10B504460068FCF77D
:10547000CBF90123636110BD70B582B0069EBDF803
:105480001CC0002851D00446002A51D0002E52D012
:10549000016042600381C660A0F810C00021418213
:1054A00041611C2B8CBF00200120A061E161012023
:1054B0002062A184A16210E001EB41004FEA800E5E
:1054C00002EB8000002522F80E504FF6FF7EA0F878
:1054D00002E045608560013189B29942ECD3002336
:1054E00007E003EB430206EBC20200211161013326
:1054F0009BB26345F5D3A3697BB1002300930222DD
:1055000011462068FCF762F94FF0FF320B49206822
:10551000FCF7AFFA002002B070BD002100910B46ED
:1055200002222068FCF752F9EEE74FF0FF30F2E775
:105530004FF0FF30EFE74FF0FF30ECE789026E00ED
:1055400020B108B50068FCF775F908BD704770B563
:1055500086B00B9D0C9E00283AD08646002D3AD08E
:10556000002E3BD0008988423BD9DEF8044001EB95
:10557000410C4FEA8C0004EB8C0CCCF80450CCF8B6
:105580000860C2F30A0222520A9D15B142F4006279
:105590002252C3F30A0343F40063ACF80230DEF88E
:1055A000183013B9002006B070BD00250095022305
:1055B000029301230393235A0493BCF8023005930A
:1055C00001916946DEF80000FCF7D0F82846EAE7CA
:1055D0004FF0FF30E7E74FF0FF30E4E74FF0FF30E8
:1055E000E1E74FF0FF30DEE710B59DF808E08446B4
:1055F000E0B1008A88421AD9DCF80C4001EB410185
:105600004FEAC10C04EBC100C2F30A024FEA0E31AB
:1056100089B20A430BB14FF40043134344F80C30F2
:1056200080F804E000230361039B436110BD002068
:10563000FCE700B58BB04B69C3610B68C3F30A0389
:105640000193002303930293079306930993059311
:1056500008930B79082B08D8DFE803F0051215181A
:105660001B1E21242700002304934A1D01A9006862
:10567000FCF724F9B0FA80F040090BB05DF804FBA8
:1056800001230493F1E702230493EEE70323049339
:10569000EBE704230493E8E705230493E5E70623F7
:1056A0000493E2E707230493DFE708230493DCE78E
:1056B00070B504460D460B6943B1036A9BB9438A32
:1056C00043F0080343826FF0080600E00026A38C35
:1056D0009BB25BB101232B61A38C9BB201339BB2C4
:1056E000A384304670BD6FF00806F0E729462046D7
:1056F000FFF79FFF10B16B69E361F2E701232B61B4
:10570000A38C9BB201339BB2A384EAE710B584B0AB
:10571000044669460068FCF79DF9BDF80010194B76
:105720001980BDF80400184B1880020242EA0142B9
:10573000A36A9A4206D0638AA262FF2904D943F081
:105740000403638204B010BD23F4417323F0030308
:105750009BB27F2806D943F440737F2907D943F0D1
:105760000303EEE75F28F8D943F48073F5E75F2879
:1057700001D943F0010313F0020FE2D123F0080333
:105780009BB2DEE7C8120020CA12002011F0010F00
:1057900000D1704708B50A464021FFF7B1FD08BDAA
:1057A00011F0080F00D1704708B50A464121FFF7F4
:1057B000A7FD08BD08B5FBF74FFE08BD2DE9F04178
:1057C0008AB00746002473E0A3EB020808F1200822
:1057D00089E00023049302EB42034FF4467205FB79
:1057E00002F202EBC3020832414B1A44053201A90E
:1057F0003846FCF763F8002877D13D4A4FF44673EA
:1058000003FB0522D2F80C33013303F01F03C2F867
:105810000C330136464549D235494FF4467305FBF2
:1058200003F3CA18D2F80C2302EB420003EBC003C7
:1058300019448B68C3F30A03019300230393029373
:10584000079306930993059308930B7B082BC2D803
:1058500001A151F823F000BFD35700087D5800087C
:1058600083580008895800088F5800089558000888
:105870009B580008A1580008A7580008012304936A
:10588000A9E702230493A6E703230493A3E70423D1
:105890000493A0E7052304939DE7062304939AE766
:1058A0000723049397E70823049394E70134E4B2B1
:1058B000104B1B78A34218D925464FF4467304FBBE
:1058C00003F30B4AD358BB42F0D113464FF4467250
:1058D00002FB0433D3F80C23D3F808339A423FF683
:1058E00073AFA3EB0208002694E70AB0BDE8F0818D
:1058F000D0120020CC1200202DE9F04105460023F3
:105900002FE0013CA4B21837FCB13B69002BF8D062
:1059100006EB8603324A52F8333039469868FFF76F
:1059200088FE00285AD000233B612D4906EB8602F1
:10593000D2008B589868838C9BB2013B9BB28384C6
:105940008B589B687A69DA61DBE706EB8606244BA5
:1059500053F836309B6800229A8400242EE00133ED
:10596000DBB2204A12789A42F7D91E4603EB830233
:105970001B4951F8322092681168A942EFD10021E9
:105980001162174F03EB83034FEAC30807EBC3040D
:1059900057F808309B68D961236901332361FBF70D
:1059A000DBFCA06157F808309A68938C9BB2002BFF
:1059B000D3D0D768148AA7E70134E4B20A4B1B7826
:1059C000A3420BD94FF4467304FB03F3074AD358A1
:1059D000AB42F1D12846FFF7F1FEEDE7BDE8F081DB
:1059E000301F0020CD120020CC120020D012002049
:1059F0002DE9F0418AB08046084617461E4609A99F
:105A0000FFF716F90546836800245C614FF47A724B
:105A10004146FFF763FA0894F6B20DF12008CDF87D
:105A20001C80069605944FF4FA7304934FF47A722F
:105A3000039202934FF42143019300943B46224684
:105A400021462846FFF766FA696ACDF8008033469A
:105A50003A462846FFF707FBA868FFF705FD0D4803
:105A600002780D4902EB820601EBC60341F836507D
:105A70005C609C60DC619C611C615C611C625C62BE
:105A8000531C037001EBC601CC6028460AB0BDE888
:105A9000F08100BFCD120020301F00202DE9F0431F
:105AA00083B006460F46002452E005EB85024D4BBD
:105AB00003EBC2031B6AFB1AB3F5FA6F6ED805EB52
:105AC0008502484B03EBC2035A68BA1A00234FF40D
:105AD0007A7101FB02F219463046FFF756FB0028A7
:105AE00079D105EB85023F4B03EBC208D8F80420BF
:105AF000BA1A4FF47A79002309FB02F219463046AC
